:020000040800F2
:10000000203E002001010008B53200084D2C0008F8
:10001000B1320008E90B0008C938000800000000F0
:100020000000000000000000000000003533000860
:100030004D0E000800000000F13200089133000866
:100040001B0100081B0100081B0100081B01000820
:100050001B0100081B0100081B0100081B01000810
:100060001B0100081B0100081B010008ED0B000824
:100070001B0100081B010008FD0B00080D0C000807
:100080001D0C00082D0C00081B0100081B010008B6
:100090001B0100081B0100081B0100081B010008D0
:1000A0001B0100081B0100081B0100081B010008C0
:1000B0001B0100081B0100081B0100081B010008B0
:1000C0001B0100081B0100081B0100081B010008A0
:1000D0001B010008A1380008B53800081B01000802
:1000E0001B0100081B0100081B010008DFF80CD0F1
:1000F00000F07AFC0048004749460008203E0020F6
:100100000648804706480047FEE7FEE7FEE7FEE7B1
:10011000FEE7FEE7FEE7FEE7FEE7FEE72134000824
:10012000ED000008202A04DB203A21FA02F0002129
:10013000704721FA02F3D040C2F1200291400843F7
:1001400019467047D2B201E000F8012B491EFBD2DC
:1001500070470022F6E710B513460A4604461946D2
:10016000FFF7F0FF204610BD30B505462A460B4686
:1001700012F8010B13F8014B08B1A042F8D01CB1E2
:10018000002802D06D1CF1E7284630BD421C10F853
:10019000011B0029FBD1801A704710B5002200E036
:1001A000521C835C8C5CA34201D1002BF8D1D8B2E5
:1001B000E1B2401A10BD034611F8012B00F8012BE3
:1001C000002AF9D11846704770B5064603F092FB35
:1001D000046805460A220021304600F062FA2C60CD
:1001E00070BDF0B480EA0102D40F4200B2EB410FBF
:1001F00002D20246084611464A0042D0C30DDDB283
:10020000C1F3C752AD1A202D35DAC1F3160141F4FE
:10021000000204B15242C5F1200602FA06F12A4159
:100220001044B3EBD05F23D0C4B1012DA0EBC35079
:1002300009DCF0BC4FF0004202EAC352DBB200F529
:10024000000000F06FBA400000F1807000EBC35076
:10025000A0F1807040EAD170490009E0490841EA04
:10026000C071A0EBC35000F50000400800EBC35084
:10027000F0BC00F04EBA6142012202EB4101001BCA
:10028000F6E7F0BC704781F00041AAE780F000403B
:10029000A7E780EA010210B502F00043400022D037
:1002A0004A001FD0010E01EB1261C0F35600C2F3E9
:1002B000560240F4000042F40002A0FB02200004B9
:1002C0007F39140400D0401C50EA124001D4400091
:1002D000491EC2B20C0604EBD010401C4008802A14
:1002E00002D003E0002010BD20F00100002900DA58
:1002F0000020184310BD30B480EA010202F000452E
:1003000030F0004221F0004013D090B1C30DD40D65
:10031000C2F31601C0F31600E41A41F4000140F4E0
:1003200000027D34914201D3641C00E04900002C9E
:1003300002DA30BC002070474FF4000000239142E5
:1003400001D3891A034340084FEA4101F7D151B163
:10035000914202D14FF0004105E002D24FF001017D
:1003600001E06FF0010103EBC450284430BC00F001
:10037000D0B92DE9FE4F81EA030404F0004421F0D6
:10038000004100944FF0000B23F0004350EA0104B9
:100390005ED052EA03045BD0C3F30A54C1F30A559A
:1003A0002C44A4F2F3340194A0FB0254C1F31301D2
:1003B00041F48011C3F3130343F4801301FB02449F
:1003C00000FB034E840A970A44EA815447EA8357A4
:1003D000A4FB076802958D0A05FB07854FEA932C5D
:1003E00004FB0C542705029D4FEA065847EA1637CE
:1003F000B5EB08056EEB070C870E920E47EA8117E6
:1004000042EA8312A7FB0201B6EB0B0164EB000486
:100410002B0D43EA0C335E1844EB1C50DA46514670
:10042000E7FB0201C5F313044FEA0B3343EA14530D
:100430004FEA0432019C43EA0603A4F10C0402943F
:10044000009CCDE900B400F0AAF903B0BDE8F08F3C
:1004500000200146F9E72DE9F04D81EA030404F09C
:10046000004B21F0004514464FF0000A23F00041F4
:1004700050EA050220D054EA01021DD0C5F30A5704
:100480000246C5F31303C1F31300C1F30A5640F447
:10049000801543F48013A7EB0608101BD64608F21C
:1004A000FD3873EB050002D308F1010801E0921852
:1004B0005B41B8F1000F03DA00200146BDE8F08D82
:1004C00000204FF48011064684460EE0171B73EBA4
:1004D000050705D3121B63EB050306434CEA010C29
:1004E00049084FEA300092185B4150EA0107EDD10C
:1004F00052EA030012D082EA040083EA05010843AD
:1005000005D0101BAB4106D20122002306E00022D9
:100510004FF0004302E06FF0010253101AEB0600A7
:100520004CEB085110EB0A0041EB0B01BDE8F04D1C
:1005300000F026B996230022114600F0F3B80EB55C
:1005400040F2334102910021CDE900110A460B46E9
:1005500000F025F903B000BD00F0004220F000409B
:10056000C10DC0F3160040F400007F2901DA00201D
:100570007047962903DCC1F19601C84001E0963925
:100580008840002AF4D04042704720F00040C10D5E
:10059000C0F3160040F400007F2901DA0020704704
:1005A000962903DCC1F19601C8407047963988400E
:1005B000704701F0004330B421F0004150EA0102DD
:1005C00006D00A0DA2F56072C1F31301002A02DC05
:1005D00030BC00207047440F44EAC104C100E01859
:1005E00030BC00EBC25000F094B80000002801DBE2
:1005F000C0F10040002901DBC1F100418142704798
:10060000002801DBC0F10040002901DBC1F10041FD
:100610008842704730B50B46014600202022012455
:1006200009E021FA02F59D4205D303FA02F5491BC0
:1006300004FA02F52844151EA2F10102F1DC30BDD6
:100640002DE9F05F0546002092469B468846064607
:10065000814640241BE02846414647462246FFF794
:1006600061FD53465A46C01A914110D311461846AF
:10067000224600F0CBF92D1A67EB01084F462246BF
:100680000120002100F0C2F917EB00094E41201EA5
:10069000A4F10104DFDC484631462A464346BDE862
:1006A000F09F2DE9F04791460F468046044600260C
:1006B00014F8015B2DB100F0CBF90068405DC00774
:1006C000F6D12B2D02D02D2D18D0641E4A46394666
:1006D000204600F0C1F927B13968A14201D1C7F81D
:1006E000008071054FF002040BD54042002803DD65
:1006F00003F000F90460A007BDE8F08746F48066C7
:10070000E4E70028F8DA03F0F5F804606FF0004041
:10071000F2E70029A8BF7047401C490008BF20F03D
:100720000100704710B4B0FA80FC00FA0CF050EAF7
:10073000010404BF10BC704749B1CCF1200421FA78
:1007400004F411FA0CF118BF012121430843A3EB73
:100750000C01CB1D4FEA00614FEA102042BF002080
:1007600010BC704700EBC35010440029A4BF10BC5C
:100770007047401C490008BF20F0010010BC7047C2
:1007800010B5141E73F1000408DA401C41F1000199
:1007900092185B411A4301D120F0010010BD2DE9F0
:1007A000F04D92469B4611B1B1FA81F202E0B0FAE7
:1007B00080F22032904600F029F904460F4640EAC4
:1007C0000A0041EA0B0153465A46084313D011462A
:1007D00053EA010019D0C8F140025046FFF7A2FCCD
:1007E00005460E4650465946424600F00FF908436A
:1007F00005D0012004E020463946BDE8F08D0020F8
:10080000054346EAE0762C4337430A986305E40A39
:10081000A0EB08000022FD0A44EA47540A3002D542
:1008200000200146E9E7010510196941DDE90845A5
:1008300000196941BDE8F04DA2E72DE9FE4F804661
:1008400081EA0300C00F0C46009021F0004123F024
:100850000045B8EB0200A94105D24046214690462A
:100860001C460B46024623F00040104347D0270D9C
:10087000C7F30A00C3F30A510290401A01904028BE
:100880006BDAC3F3130040F4801B0098924620B14A
:100890000023D2EB030A63EB0B0B01985946C0F11E
:1008A0004002504600F0B2F806460D465046594602
:1008B000019A00F0BAF810EB08006141002487EAC1
:1008C000115284EAE7731A4340D0009A62B3019A46
:1008D000012A4FEA075215DC001B61EB02014FF0C1
:1008E000004202EA0752CDE90042001C41F58011A6
:1008F00032462B46FFF753FF03B0BDE8F08F40466A
:100900002146F9E7001B61EB0201001C41F5801351
:1009100000185B412018A2F5001747EB030140EADD
:10092000D570B6196D4111E06D084FEA360645EAFB
:10093000C0754FEA0752001B61EB0201001C41F534
:10094000801149084FEA30000019514132462B46C8
:1009500003B0BDE8F04FFFF713BF0098012240003D
:100960000023D0EB020263EBE073009821464FEACC
:10097000E074B8EB000061EB0401E9E783F00043A9
:100980005BE781F0004158E7C1F30A52C1F313015C
:1009900040F2FF3341F480119A4202DA002001460E
:1009A000704740F233439A42A2F2334202DC524291
:1009B000FFF7B8BB00F02AB830B5041E71F100048F
:1009C00004DB4FF00044404264EB0101141E73F15C
:1009D000000405DB1C464FF00043524263EB040366
:1009E000994208BF904230BD064C074D06E0E068D2
:1009F00040F0010394E8070098471034AC42F6D366
:100A0000FFF778FB505A0008705A0008202A04DBD0
:100A1000203A00FA02F1002070479140C2F1200311
:100A200020FA03F3194390407047202A06DBCB17C6
:100A3000203A41FA02F043EAE07306E041FA02F399
:100A4000D040C2F12002914008431946704700008F
:100A5000004870474C5A00082DE9F05F8246007844
:100A6000002715468B460AF10104B946302801D00B
:100A70009DB113E014F8010B0127782803D0582802
:100A800001D045B10AE00DB1102D07D10027102586
:100A900014F8010B02E0082500E00A250026B04604
:100AA0000EE005FB080005FB06F1012701EB1046EF
:100AB0001FFA80F8B6F5803F00D3B94614F8010B51
:100AC000294600F018F80028EBDABBF1000F05D03A
:100AD0000FB1641E00E05446CBF80040B9F1000F9E
:100AE00006D002F007FF02210160C81EBDE8F09F9A
:100AF00048EA0640FAE73A2800D2303820F02002CF
:100B0000412A01D3A2F13700884201D34FF0FF30D0
:100B1000704770B5044600252068806800F0010029
:100B2000F0B12068806820F001002168886000F042
:100B3000E5FF05460EE000F0E1FF401B022809D961
:100B4000A06A40F01000A062E06A40F00100E0629C
:100B5000012070BD2068806800F001000028EAD103
:100B60000020F6E738B504460025002000902068F4
:100B7000806800F0010080BB2068806840F00100C0
:100B800021688860164800681649B0FBF1F00090B3
:100B900002E00098401E009000980028F9D100F073
:100BA000ADFF054613E000F0A9FF401B02280ED957
:100BB000A06A40F01000A062E06A40F00100E0622C
:100BC00000BF002084F8240000BF012038BD206849
:100BD000806800F001000028E5D00020F6E7000062
:100BE000A400002040420F0000BFFEE710B50248FD
:100BF00000F084FC10BD0000280E002010B5024853
:100C000000F07CFC10BD00003C0F002010B5024835
:100C100000F074FC10BD0000F80E002010B5024872
:100C200000F06CFC10BD0000800F002010B50248E1
:100C300000F064FC10BD0000C40F002030B590F837
:100C400040500124AC40C56B6C600468636044682C
:100C5000102C04D10468A2600468E16003E0046819
:100C6000A1600468E26030BD70B5002502F064FB4D
:100C700000241AE002F076FB00224FF400710D48C8
:100C800000F036FF022000F0CBF802F055FB4FF4E5
:100C90000071084800F024FF18B10120A04028434B
:100CA000C5B23C2000F0BCF8641C082CE2DB2846EE
:100CB00070BD0000000C01402DE9F0474FF0000A24
:100CC000D146002400F034F8012000F067FDCC206C
:100CD00000F052F8442000F04FF84FF4487000F054
:100CE0009FF800F025F8012000F058FDCC2000F01E
:100CF00043F8BE2000F040F8FFF7B6FF8246FFF74A
:100D0000B3FF81464C464FF6FF7000EA042444EAE4
:100D10000A042046FFF713FC07460022034BFFF7A7
:100D20009AFB0546FFF745FCBDE8F0870000304020
:100D300010B5002402F016FB00224FF400710D489C
:100D400000F0D6FE4FF4F07000F06AF802F0F4FA0A
:100D5000502000F065F84FF40071064800F0C0FE26
:100D600008B9012400E0FF244FF4C87000F058F8DF
:100D7000204610BD000C014070B5054602F0F2FAA5
:100D8000002422E00120A040284080B102F0EAFACD
:100D900000224FF400710E4800F0AAFE012000F07E
:100DA0003FF802F0C9FA322000F03AF80CE002F005
:100DB000D9FA00224FF40071054800F099FE322064
:100DC00000F02EF802F0B8FA641C082CDADB70BDD3
:100DD000000C01401048006800F080700E49086067
:100DE0000846006840F0807008600C48006820F0F9
:100DF00001000A4908600846006840F001000860E8
:100E00000020486000BF00BF00BF0448406808B130
:100E1000002070470120FCE7FCED00E0001000E03E
:100E200070B504460748456801F04EF90649B0FB25
:100E3000F1F0444300BF03484068401BA042FAD38E
:100E400070BD0000001000E040420F007047704786
:100E500038B5024600230020009000BF92F824001D
:100E6000012801D1022038BD012082F8240000BFF2
:100E70004868072812D21068406B0C79641E04EB96
:100E800084051F24AC40A0430D796D1E05EB85053C
:100E90000C68AC4020431468606327E048680D2864
:100EA00012D21068006B0C79E41F04EB84051F2438
:100EB000AC40A0430D79ED1F05EB85050C68AC40F7
:100EC00020431468206311E01068C06A0C790D3C5F
:100ED00004EB84051F24AC40A0430D790D3D05EBC8
:100EE00085050C68AC4020431468E06208680A2855
:100EF00012D31068C0680C780A3C04EB4405072440
:100F0000AC40A0430D780A3D05EB45058C68AC402C
:100F100020431468E0600FE0106800690C7804EB6F
:100F200044050724AC40A0430D7805EB45058C68CB
:100F3000AC402043146820610868102802D008687B
:100F4000112827D1174C1068A0421ED11068806864
:100F500000F40000F0B91068806840F400001468E4
:100F6000A0600868102815D10F4800680F4CB0FB2E
:100F7000F4F000EB80004000009002E00098401E7A
:100F8000009000980028F9D104E0906A40F0200019
:100F90009062012300BF002082F8240000BF1846A1
:100FA00061E7000000240140A400002040420F003F
:100FB00001460868C06C70472DE9F04104460027DF
:100FC00000250026A84614B90120BDE8F081A068DC
:100FD00010B1606900B100BFA06A30B90020E062C2
:100FE00084F82400204600F089F82046FFF791FDA0
:100FF0000746A06A00F01000002873D1002F71D1BD
:10100000A06A20F4885040F00200A062E1696068A4
:101010000843E16840EA41000643A068B0F5807FDC
:1010200002D0A068012802D14FF4807000E00020B7
:1010300005436069012811D1E06838B9A069401EF4
:101040004FF4006141EA4030054307E0A06A40F0F8
:101050002000A062E06A40F00100E0622068406881
:1010600020F469402843216848602068806821494D
:101070000840304321688860A068B0F5807F02D0C6
:10108000A068012802D14FF4807000E00020B0F584
:10109000807F03D1208A401E4FEA00582068C06A32
:1010A00020F4700040EA08002168C8622068806867
:1010B00011490840B04208D10020E062A06A20F047
:1010C000020040F00100A06211E0A06A20F00200DE
:1010D00040F01000A062E06A40F00100E0620127E9
:1010E00005E0FFE7A06A40F01000A0620127384643
:1010F0006BE70000FDF7E1FFFE0E1FFF10B586B0A5
:101100000446002002900390049005902249206834
:1011100088423ED100BF2148806940F400701F49D9
:1011200088610846806900F40070019000BF00BF2C
:1011300000BF0846806940F0040088610846806965
:1011400000F00400019000BF00BF012002900320C6
:10115000039002A9124800F035FB124812490860BA
:1011600000204860002110488160C1604FF4007188
:1011700001618900416120218161C901C16100F0E3
:101180008BFA08B1FFF763FE00BF07482062446294
:1011900000BF06B010BD0000002401400010024056
:1011A0000008014008000240280E0020F8B504465F
:1011B0000D46002600200090002700F09FFC064608
:1011C0002068806800F4807050B1A06A40F0200070
:1011D000A06200BF002084F8240000BF0120F8BDF9
:1011E0002068406800F48070F8B92068C06A00F494
:1011F0007000D0B912E0681C80B125B100F07EFC0F
:10120000801BA8420AD9A06A40F00400A06200BF77
:10121000002084F8240000BF0320E0E72068006875
:1012200000F002000028E6D050E0022000F03CFD73
:1012300036490968B1FBF0F021680969344A114068
:1012400091B92168C9689211114069B92168096989
:10125000304A114031B92168C9689211114009B969
:10126000142117E0292115E021680969294A114054
:1012700021B92168C9689211114041B121680969F9
:10128000254A114029B92168C968114009B954217A
:1012900000E0FC2100FB01F715E0681C80B125B1DE
:1012A00000F02CFC801BA8420AD9A06A40F0040080
:1012B000A06200BF002084F8240000BF03208EE756
:1012C0000098401C00900098B842E6D36FF01200DE
:1012D00021680860A06A40F40070A06220688068FD
:1012E00000F46020B0F5602F0DD1E06858B9A06A15
:1012F00020F48070A062A06A00F4805018B9A06A3F
:1013000040F00100A062002069E70000A400002076
:1013100024499224922449124992240070B504462B
:10132000002500BF94F82400012801D1022070BDDF
:10133000012084F8240000BF2046FFF713FC054677
:10134000002D77D1A06A40F20121884340F48070DB
:10135000A0623C492068884208D13B48006800F4FC
:10136000702008B9012002E0002000E0012078B1DF
:10137000A06A20F48010A0622068406800F48060B9
:1013800000B3A06A20F4005040F48050A06219E03D
:10139000A06A40F48010A0622B49091F206888428F
:1013A00003D028492068884204D12748006800F407
:1013B000806000E0002028B1A06A20F4005040F4D2
:1013C0008050A062A06A00F4805020B1E06A20F052
:1013D0000600E06201E00020E06200BF002084F827
:1013E000240000BFC01E216808602068806800F4E7
:1013F0006020B0F5602F16D112492068884208D1CC
:101400001148006800F4702008B9012002E00020B3
:1014100000E0012038B12068806840F4A000216815
:1014200088600CE006E02068806840F48010216845
:10143000886004E000BF002084F8240000BF284634
:1014400075E70000002801400424014070B50446FF
:10145000002594F82100022803D00420A063012570
:1014600048E02068006820F00E00216808602068CD
:10147000006820F00100216808601F492068884248
:1014800001D1012026E01C4914312068884201D195
:1014900010201FE0184928312068884201D18015AA
:1014A00018E015493C312068884201D1801411E0D0
:1014B000114950312068884202D14FF4803009E050
:1014C0000D4964312068884202D14FF4801001E058
:1014D0004FF08070084908394860012084F82100E5
:1014E00000BF002084F8200000BF606B10B12046D0
:1014F000616B8847284670BD0800024070B50446FD
:10150000E06B05682068066894F840100420884065
:101510002840002846D006F00400002842D0206869
:10152000006800F0200028B92068006820F004005E
:101530002168086057492068884201D1042027E0CB
:10154000544914312068884201D1402020E051499B
:1015500028312068884201D1001519E04D493C31FD
:101560002068884202D14FF4804011E0494950314F
:101570002068884202D14FF4802009E04549643157
:101580002068884202D14FF4800001E04FF0806073
:10159000404908394860E06A00287AD02046E16A6C
:1015A000884776E094F84010022088402840A0B395
:1015B00006F0020088B32068006800F0200040B9FF
:1015C0002068006820F00A0021680860012084F883
:1015D000210030492068884201D1022028E02D49AD
:1015E00014312068884201D1202021E02949283186
:1015F0002068884201D140151AE026493C31206814
:10160000884202D14FF4005012E022495031206844
:10161000884203D14FF400300AE017E01D496431DD
:101620002068884202D14FF4001001E04FF00070B2
:1016300018490839486000BF002084F8200000BF26
:10164000A06A30B32046A16A884722E094F840108F
:10165000082088402840E0B106F00800C8B12068A2
:10166000006820F00E002168086094F84010012006
:101670008840E16B48600120A06384F8210000BF2E
:10168000002084F8200000BF206B10B12046216BA1
:10169000884770BD080002400146002209B90120B8
:1016A0007047164B0868C01A1423B0FBF3F0800093
:1016B000086412480838C863022081F821000868CD
:1016C000026843F6F0708243D1E901031843CB6806
:1016D00018430B6918434B6918438B691843CB694E
:1016E000184302430868026000208863012081F8E3
:1016F0002100002081F8200000BFD1E7080002404F
:101700002DE9F04104460D4616461F464FF00008ED
:1017100000BF94F82000012802D10220BDE8F0812A
:10172000012084F8200000BF94F8210001282CD16A
:10173000022084F821000020A0632068006820F0C7
:101740000100216808603B46324629462046FFF7E3
:1017500075FAE06A30B12068006840F00E00216838
:1017600008600BE02068006820F004002168086031
:101770002068006840F00A0021680860206800685E
:1017800040F001002168086006E000BF002084F8F6
:10179000200000BF4FF002084046BFE770B5044686
:1017A00000F0ACF906462546681C10B104480078E4
:1017B000054400BF00F0A2F9801BA842FAD370BD17
:1017C000A00000202DE9F847034600240020002552
:1017D0008446002700226EE14FF0010808FA02F467
:1017E000D1F8008008EA0400A0427DD1DFF8D0A241
:1017F000D1F80480A8EB0A09D0453AD014DCB8F13E
:10180000030F50D009DCB8F1000F31D0B8F1010F4F
:101810001CD0B8F1020F49D120E0B8F1110F18D057
:10182000B8F1120F42D11EE0B9F5881F25D006DCB1
:10183000B9F5803F20D0B9F5801F37D11AE0B9F54E
:10184000001F18D0B9F5041F30D117E0D1F80CC033
:101850002DE0D1F80C8008F1040C28E0D1F80C80C0
:1018600008F1080C23E0D1F80C8008F10C0C1EE004
:1018700000BF00BF00BF00BF00BF00BFD1F808809D
:10188000B8F1000F02D14FF0040C0BE0D1F8088042
:10189000B8F1010F03D14FF0080C1C6102E04FF0CA
:1018A000080C5C6103E04FF0000C00E000BF00BFDB
:1018B000FF2801D8984601E003F104084646FF28B6
:1018C00002D84FEA820803E0A2F108084FEA88082C
:1018D0004746D6F800804FF00F0909FA07F928EAC1
:1018E00009080CFA07F900E088E048EA0908C6F898
:1018F0000080D1F8048008F08058B8F1805F7DD175
:1019000000BFDFF8C081D8F8188048F00108DFF880
:10191000B491C9F81880C846D8F8188008F00108B2
:10192000CDF8008000BF00BF4FEAB9384FEA9209F6
:1019300058F829504FEA82784FEA18794FF00F088B
:1019400008FA09F825EA0805DFF87C81434502D149
:101950004FF0000816E0DFF87481434502D14FF0E4
:1019600001080FE0DFF86881434502D14FF002081B
:1019700008E0DFF86081434502D14FF0030801E041
:101980004FF004084FEA82794FEA197908FA09F80A
:1019900048EA0505DFF840814FEA920948F82950E6
:1019A000D1F8048008F48038B8F5803F0AD1DFF818
:1019B0002C81D8F8008048EA0008DFF82091C9F8A7
:1019C000008009E0DFF81481D8F8008028EA0008D8
:1019D000DFF80891C9F80080D1F8048008F40038D5
:1019E000B8F5003F10D1DFF8F48008F10408D8F80A
:1019F000008048EA0008DFF8E49000E05AE009F1CE
:101A00000409C9F800800DE0DFF8D08008F104086F
:101A1000D8F8008028EA0008DFF8C09009F104092E
:101A2000C9F80080D1F8048008F48018B8F5801F48
:101A30000ED1DFF8A88008F10808D8F8008048EA3D
:101A40000008DFF8989009F10809C9F800800DE056
:101A5000DFF8888008F10808D8F8008028EA000834
:101A6000DFF8789009F10809C9F80080D1F80480FE
:101A700008F40018B8F5001F0ED1DFF8608008F1F7
:101A80000C08D8F8008048EA0008DFF8509009F107
:101A90000C09C9F800800DE0DFF8408008F10C085F
:101AA000D8F8008028EA0008DFF8309009F10C0926
:101AB000C9F80080521C102AFFF48EAEBDE8F887EA
:101AC000000011100010024000080140000C01400D
:101AD00000100140001401400800014000040140D2
:101AE000024693680B400BB1012000E000207047D4
:101AF0000AB1016101E00B0403617047014800680D
:101B000070470000980000200348006803490978E6
:101B1000084401490860704798000020A000002098
:101B200010B50848006840F010000649086003201E
:101B300000F0A6F8002000F007F800F02BF80020D5
:101B400010BD00000020024070B504460E48007829
:101B50004FF47A71B1FBF0F00C490968B1FBF0F574
:101B6000284600F041FD08B1012070BD102C07D2BD
:101B700000222146501E00F044F80548046001E0B0
:101B80000120F2E70020F0E7A0000020A4000020E0
:101B90009C00002008B500BF1148806940F001009A
:101BA0000F4988610846806900F00100009000BF7D
:101BB00000BF00BF0846C06940F08050C8610846B9
:101BC000C06900F08050009000BF00BF00BF054911
:101BD000486820F0E06040F00070486000BF08BD39
:101BE000001002400000014000BF00F01F02012170
:101BF00091404209920002F1E022C2F8001100BFB8
:101C000070472DE9F05F80460D461646002701F02B
:101C100053FB074639462A46334601F00700C0F118
:101C2000070ABAF1040F02D94FF0040A01E0C0F12B
:101C3000070AD14600F1040ABAF1070F02D24FF0A9
:101C4000000A01E0A0F1030AD4464FF0010A0AFAA3
:101C500009FAAAF1010A0AEA020A0AFA0CFA4FF092
:101C6000010B0BFA0CFBABF1010B0BEA030B4AEA7D
:101C70000B042146404601F027FBBDE8F09F000021
:101C800000BF00F00702064B19684FF6FF0319402A
:101C9000044B0B4343EA0221014B196000BF70471C
:101CA0000CED00E00000FA052DE9F04385B0064692
:101CB0003DA30FCB01AC0FC43FA0006800904FF0D4
:101CC0000008002500270024A146012E30D0022E56
:101CD00058D0102E61D139484468006800F08070F7
:101CE00000B301A8C4F38341475C04F4803070B1B1
:101CF00032484068C0F340401DF8008004F4803052
:101D000040B12F48B0FBF8F000FB07F502E02D488A
:101D100007FB00F52948406800F48000B0F5800F0B
:101D200001D1A94603E068000321B0FBF1F935E0D9
:101D30002248046A04F44070B0F5807F05D104F0B5
:101D4000020010B14FF400491BE004F44070B0F5FC
:101D5000007F07D11948406A00F0020010B149F62F
:101D600040490EE004F44070B0F5407F07D11348BD
:101D7000006800F4003010B14FF2244901E04FF048
:101D800000090BE000F0B6F90C494968C1F3813154
:101D9000491C4900B0FBF1F900E000BF00BF484614
:101DA00005B0BDE8F083000002030405060708093A
:101DB0000A0B0C0D0E0F1010010200000010024063
:101DC00000127A0000093D00F8B5044600260025FF
:101DD000207800F0010000286BD000274348C0693C
:101DE00000F0805070B900BF4048C06940F080509A
:101DF0003E49C8610846C06900F08050009000BFAD
:101E000000BF01273A48006800F48070B0B9384834
:101E1000006840F4807036490860FFF76FFE0646A0
:101E200006E0FFF76BFE801B642801D90320F8BD94
:101E30002F48006800F480700028F2D02B48006A18
:101E400000F440752DB3A08800F44070A84220D063
:101E50002648006A20F440750120264908600020C9
:101E600008602248056205F0010090B1FFF746FEC8
:101E7000064608E0FFF742FE801B41F288318842A7
:101E800001D90320D3E71948006A00F002000028B6
:101E9000F0D01648006A20F4407061680843134986
:101EA0000862012F04D10846C06920F08050C86143
:101EB00000BF207800F00200022807D10B484068DC
:101EC00020F44040A168084308494860207800F0A9
:101ED0001000102807D10548406820F48000E16810
:101EE0000843024948600020A1E7000000100240BA
:101EF000007000404004424270B504460D46002682
:101F00006D48006800F00700A8420ED26A480068D9
:101F100020F007002843684908600846006800F080
:101F20000700A84201D0012070BD207800F0020017
:101F300002281DD1207800F00400042805D15F4854
:101F4000406840F4E0605D494860207800F0080097
:101F5000082805D15948406840F460505749486006
:101F60005648406820F0F000A16808435349486093
:101F7000207800F0010000285DD06068012806D1BB
:101F80004E48006800F4003090B90120CCE760684A
:101F9000022806D14948006800F0007040B90120CD
:101FA000C2E74648006800F0020008B90120BBE71C
:101FB0004248406820F00300616808433F49486098
:101FC000FFF79CFD06466068012810D108E0FFF786
:101FD00095FD801B41F28831884201D90320A3E797
:101FE0003648406800F00C000428F0D123E0606817
:101FF000022810D108E0FFF781FD801B41F28831F3
:10200000884201D903208FE72C48406800F00C007B
:102010000828F0D10FE008E0FFF770FD801B41F2C7
:102020008831884201D903207EE72448406800F0C7
:102030000C000028F0D12048006800F00700A842FA
:102040000ED91D48006820F0070028431A4908608F
:102050000846006800F00700A84201D0012063E7AD
:10206000207800F00400042807D11448406820F4C8
:10207000E060E168084311494860207800F00800FA
:10208000082808D10D48406820F46050216940EAD2
:10209000C1000A49486000F03DF808494968C1F3A9
:1020A0000311074A515CC840064908600020FFF749
:1020B0004BFD002038E700000020024000100240E5
:1020C000B0590008A40000200148006870470000D3
:1020D000A400002000B5FFF7F7FF04494968C1F3E9
:1020E0000221034A515CC84000BD000000100240BC
:1020F000C059000800B5FFF7E7FF04494968C1F37C
:10210000C221034A515CC84000BD000000100240DB
:10211000C0590008F0B585B00FF26C0C9CE8E010D7
:1021200001A8A0E8E0101CA52D6800950021002260
:10213000002300240020194D696801F00C05F5B159
:10214000042D02D0082D19D101E0154819E001AD88
:10215000C1F38346AC5D01F4803555B10F4D6D6818
:10216000C5F340451DF805200D4D6543B5FBF2F361
:1021700002E00C4D04FB05F3184602E000BF0848DE
:1021800000BF00BF05B0F0BD020304050607080943
:102190000A0B0C0D0E0F101001020000001002407F
:1021A00000127A0000093D00F8B5044600252078A9
:1021B00000F00100002878D0F848406800F00C00DA
:1021C00004280CD0F548406800F00C00082811D114
:1021D000F248406800F48030B0F5803F0AD1EF4803
:1021E000006800F4003000285FD0606800285CD1EF
:1021F0000120F8BD00BF6068B0F5803F06D1E74818
:10220000006840F48030E549086028E0606858B90B
:10221000E248006820F48030E04908600846006821
:1022200020F4802008601AE06068B0F5A02F0BD180
:10223000DA48006840F48020D84908600846006801
:1022400040F4803008600AE0D448006820F4803010
:10225000D24908600846006820F48020086000BF6A
:10226000606888B1FFF74AFC054606E0FFF746FCC8
:10227000401B642801D90320BBE7C848006800F46C
:1022800000300028F2D010E0FFF738FC054606E0E9
:10229000FFF734FC401B642801D90320A9E7BF489D
:1022A000006800F400300028F2D1207800F002002D
:1022B000022857D1B948406800F00C0050B1B74827
:1022C000406800F00C00082818D1B448406800F4B9
:1022D000803098B9B148006800F0020020B1206950
:1022E000012801D0012084E7AC48006820F0F80004
:1022F000616940EAC100A949086033E02069E8B19A
:102300000120A7490860FFF7F9FB054606E0FFF743
:10231000F5FB401B022801D903206AE79F480068AB
:1023200000F002000028F2D09C48006820F0F8007D
:10233000616940EAC1009949086013E000209849AA
:102340000860FFF7DBFB054606E0FFF7D7FB401B05
:10235000022801D903204CE79048006800F00200F1
:102360000028F2D1207800F0080008282DD1A069BB
:10237000B8B101208B490860FFF7C0FB054606E0B5
:10238000FFF7BCFB401B022801D9032031E783483B
:10239000406A00F002000028F2D0012000F0AAFFFD
:1023A00013E000207F490860FFF7A8FB054606E020
:1023B000FFF7A4FB401B022801D9032019E7774847
:1023C000406A00F002000028F2D1207800F00400FA
:1023D000042873D100267148C06900F0805070B99C
:1023E00000BF6E48C06940F080506C49C861084623
:1023F000C06900F08050009000BF00BF01266A480D
:10240000006800F48070B0B96748006840F48070DC
:1024100065490860FFF772FB054606E0FFF76EFBB3
:10242000401B642801D90320E3E65F48006800F4FC
:1024300080700028F2D000BFE068012806D157481C
:10244000006A40F001005549086227E0E06858B989
:102450005248006A20F00100504908620846006AAC
:1024600020F00400086219E0E06805280BD14B4811
:10247000006A40F00400494908620846006A40F0DA
:10248000010008620AE04548006A20F00100434963
:1024900008620846006A20F00400086200BFE06895
:1024A000A0B1FFF72BFB054609E0FFF727FB401B18
:1024B00041F28831884202D903209AE622E0374867
:1024C000006A00F002000028EFD012E0FFF716FBD0
:1024D000054608E0FFF712FB401B41F288318842B5
:1024E00001D9032085E62D48006A00F0020000288B
:1024F000F0D1012E05D12948C06920F0805027492C
:10250000C86100BFE069C8B32448406800F00C000F
:10251000082860D0E069022848D1002020490866D8
:10252000FFF7ECFA054606E0FFF7E8FA401B022841
:1025300001D903205DE61948006800F0007000280A
:10254000F2D1206AB0F5803F07D11448406820F4EA
:102550000030A168084311494860D4E908010843E4
:102560000E49496821F4741108430C494860012060
:102570000B490866FFF7C2FA054607E02DE0FFF7B2
:10258000BDFA401B022801D9032032E60348006847
:1025900000F000700028F2D01FE0000000100240A0
:1025A00000004242800442420070004000200C497A
:1025B0000866FFF7A3FA054606E0FFF79FFA401BFF
:1025C000022801D9032014E60648006800F00070D4
:1025D0000028F2D101E001200BE6002009E600000E
:1025E000000042420010024070B504462546681EB5
:1025F000B0F1807F01D301200FE0681E4FF0E02191
:1026000048610F214FF0FF3000F05EFE00204FF0D8
:10261000E021886107200861002070BD704700003C
:102620002DE9F0470446206805682068C6682068E0
:1026300047694FF00008C14605F00F08B8F1000FD8
:102640000AD105F0200038B106F0200020B1204664
:1026500000F0BAFFBDE8F087B8F1000F6DD007F0C9
:10266000010018B906F49070002866D005F001004A
:1026700030B106F4807018B1E06B40F00100E06307
:1026800005F0040030B107F0010018B1E06B40F034
:102690000200E06305F0020030B107F0010018B15C
:1026A000E06B40F00400E06305F0080030B107F093
:1026B000010018B1E06B40F00800E063E06B68B324
:1026C00005F0200028B106F0200010B1204600F0EF
:1026D0007BFF20684069C0F38019E06B00F00800C0
:1026E00010B9B9F1000F22D0204600F043FF206856
:1026F000406900F04000B0B12068406920F040001F
:1027000021684861606B50B11748616B4863606B2A
:10271000FEF79CFE10B1606B416B88470CE02046D1
:10272000FFF77CFF08E02046FFF778FF04E0204633
:10273000FFF774FF0020E0638CE705F0800030B104
:1027400006F0800018B1204601F076F882E705F027
:10275000400030B106F0400018B1204600F01AFFEA
:1027600078E700BF76E700007934000810B504462A
:102770000CB9012010BDA06900B100E000BF94F8C1
:10278000390028B9002084F83800204600F028F8E5
:10279000242084F839002068C06820F400502168A3
:1027A000C860204600F064FF2068006920F4904073
:1027B000216808612068406920F02A00216848618A
:1027C0002068C06840F400502168C8600020E063C1
:1027D000202084F8390084F83A000020CAE700007D
:1027E00010B586B004460020029003900490059036
:1027F0007149206888426CD100BF7048806940F4FC
:1028000080406E4988610846806900F480400190EC
:1028100000BF00BF00BF0846806940F00400886127
:102820000846806900F00400019000BF00BF481511
:102830000290022003900320059002A96048FEF751
:10284000C1FF4FF48060029000200390049002A921
:102850005B48FEF7B7FF5B485B49086000204860B3
:102860000021594881608021C160002101614161DE
:10287000202181610021C161FEF70EFF08B1FEF742
:10288000E6FA00BF50486063446200BF4D48143808
:102890004E4908601020486000214C48816080212A
:1028A000C1600021016141618161C161FEF7F4FEF7
:1028B00008B1FEF7CCFA00BF44482063446200BF71
:1028C000002211462520FFF79CF92520FFF78CF9FF
:1028D0006FE03F49206888426BD100BF3748C0692C
:1028E00040F400303549C8610846C06900F4003042
:1028F000019000BF00BF00BF0846806940F004009F
:1029000088610846806900F00400019000BF00BFA4
:1029100004200290022003900320059002A9284879
:10292000FEF750FF0820029000200390049002A9B7
:102930002348FEF747FF234814302649086000204B
:1029400048600021234881608021C160002101612D
:102950004161202181610021C161FEF79DFE08B126
:10296000FEF775FA00BF1B486063446200BF15485C
:1029700028301949086010204860002116488160FD
:102980008021C1600021016141618161C161FEF767
:1029900083FE08B1FEF75BFA00BF0F482063446274
:1029A00000BF002211462620FFF72BF92620FFF753
:1029B0001BF906B010BD00000038014000100240B5
:1029C0000008014058000240F80E00203C0F002093
:1029D00000440040800F0020C40F002077B581B074
:1029E0000446154694F83A00202850D1029800B1C8
:1029F00015B9012004B070BD00BF94F8380001285B
:102A000001D10220F6E7012084F8380000BF0298C7
:102A1000A062A5850020E063222084F83A001D48CA
:102A2000616B88621C48616BC8621C48616B0863FB
:102A30000020616B486302AE32682368191D2B4683
:102A4000606BFEF75DFE00BF00200090206800680C
:102A5000009020684068009000BF00BF00BF0020C9
:102A600084F8380000BF2068C06840F48070216896
:102A7000C8602068406940F0010021684861206812
:102A8000406940F04000216848610020B2E7022020
:102A9000B0E70000DD340008233500088D3400085D
:102AA00010B5034693F83A0020282FD101B10AB996
:102AB000012010BD00BF93F83800012801D1022089
:102AC000F7E7012083F8380000BF99629A85DA851C
:102AD0000020D863222083F83A0000BF002083F84A
:102AE000380000BF1868C06840F480701C68E0605F
:102AF0001868406940F001001C6860611868C0688F
:102B000040F020001C68E0600020D2E70220D0E7FF
:102B100010B5044609492068884205D10848417823
:102B2000084801F076FF08E007492068884204D190
:102B300006480178064801F06CFF10BD00380140DE
:102B400043000020680100200044004046000020AF
:102B50001412002010B5044605492068884205D1AA
:102B600004480178044801F054FF00E000BF10BDA4
:102B7000003801404300002068010020F7B50446FA
:102B8000154694F8390020283DD1019800B10DB9BF
:102B90000120FEBD00BF94F83800012801D10220B9
:102BA000F7E7012084F8380000BF01982062A5846F
:102BB000E5840020E063212084F839001348216B6C
:102BC00088621348216BC8621248216B0863002099
:102BD000216B486301AE23681A1D31682B46206BB8
:102BE000FEF78EFD6FF040002168086000BF0020F6
:102BF00084F8380000BF2068406940F080002168F8
:102C000048610020C5E70220C3E700003135000815
:102C1000673500088D340008074A0168914203D1E6
:102C20000121064A117006E0054A0168914202D16D
:102C30000121044A11707047003801404100002012
:102C400000440040420000207047000000F00CF8F3
:102C500002A000F0D3F800BFFEE7000048617264F4
:102C6000206661756C74000010B50121084600F003
:102C7000D4F810BD10B50121022000F0CEF810BD2F
:102C80002DE9F05F04460D4616461F46DDE90CAB04
:102C9000DDE90A892248046022480580224806802E
:102CA000224807602248A0F800802248A0F800903F
:102CB0002148A0F800A02148A0F800B00220204937
:102CC000087028201F4908701420FEF767FD0320B4
:102CD00000F064F90520FEF761FD032000F05EF9C5
:102CE0000120FEF75BFD032000F058F90120FEF7FC
:102CF00055FD022000F052F90120FEF74FFD0F2094
:102D000000F080F9012000F07DF90320FEF746FD78
:102D1000282000F077F90320FEF740FDBDE8F09F82
:102D200004000020080000200A00002018000020F5
:102D30001C0000201E000020200000202200002097
:102D4000000000202500002010B50122094801885C
:102D500009480068FEF7CCFE0A2000F027F80022A0
:102D60000448018804480068FEF7C2FE3C2000F0D9
:102D70001DF810BD0A0000200400002010B5044614
:102D80003CB101220748018807480068FEF7B0FE01
:102D900006E000220348018803480068FEF7A8FE09
:102DA00010BD0000080000200400002070B504469B
:102DB000B4F57A7F07D34FF47A70B4FBF0F5284668
:102DC000FEF7ECFC02E00120FEF7E8FC70BD10B558
:102DD000012000F017F90320FEF7E0FC10BD000011
:102DE00010B50548007820F0010003490870084636
:102DF000007800F007F910BD2400002070B50546EA
:102E0000002404E0285D00F006F9601CC4B2102C18
:102E100002DA285D0028F5D170BD70B505460E4672
:102E2000701E00F00F04012D05D144F080042046EF
:102E300000F0E8F804E044F0C004204600F0E2F8B6
:102E400070BD000070B5064606F00F04350948480D
:102E50000078012842D104F0010246480188464822
:102E60000068FEF745FE04F002024448018842482B
:102E70000068FEF73DFE04F00402414801883E4828
:102E80000068FEF735FE04F008023E4801883A4823
:102E90000068FEF72DFE05F001023B4801883B4823
:102EA0000068FEF725FE05F0020239480188374820
:102EB0000068FEF71DFE05F004023648018833481D
:102EC0000068FEF715FE05F00802334801882F4818
:102ED0000068FEF70DFEFFF737FF47E02448007853
:102EE000022843D105F001022748018827480068DD
:102EF000FEF7FEFD05F00202254801882348006820
:102F0000FEF7F6FD05F00402224801881F4800681C
:102F1000FEF7EEFD05F008021F4801881B48006817
:102F2000FEF7E6FDFFF710FF04F0010216480188E6
:102F300016480068FEF7DCFD04F002021448018820
:102F400012480068FEF7D4FD04F00402114801881D
:102F50000E480068FEF7CCFD04F008020E48018818
:102F60000A480068FEF7C4FDFFF7EEFE70BD0000E2
:102F700000000020100000200C00002012000020A3
:102F800014000020160000201C0000201800002063
:102F90001E000020200000202200002070B5054601
:102FA00005F00F040020FFF7E9FE04F001021048CD
:102FB000018810480068FEF79BFD04F002020E48ED
:102FC00001880C480068FEF793FD04F004020B48EA
:102FD000018808480068FEF78BFD04F008020848E5
:102FE000018804480068FEF783FDFFF7ADFE70BD61
:102FF0001C000020180000201E00002020000020DF
:103000002200002010B504460020FFF7B7FE20463E
:10301000FFF718FF10BD10B504460120FFF7AEFE04
:103020002046FFF70FFF10BD10B501210F48FEF736
:1030300057FD04460E480078A8B9012C13D10D485D
:10304000007840B9012202210848FEF751FD012015
:103050000849087007E0002202210448FEF748FDF5
:103060000020044908700248047010BD000C0140A3
:10307000710000207000002010B5022202490348B0
:10308000FFF7ACFC10BD000043000020780E0020CC
:10309000704700000EB50020009001900290134888
:1030A000134908600021124881600121C16000219C
:1030B00041614FF46021C16100200D494860012148
:1030C0000B480161FDF778FF08B1FDF7C0FE002055
:1030D0000090012001900620029069460448FDF707
:1030E000B7FE08B1FDF7B3FE0EBD0000002401409D
:1030F000F80D002008B500BF1A48406940F00100F3
:10310000184948610846406900F00100009000BF7E
:1031100000BF002211460B20FEF773FD0B20FEF7C7
:1031200063FD002211460E20FEF76BFD0E20FEF718
:103130005BFD002211460F20FEF763FD0F20FEF716
:1031400053FD002211461020FEF75BFD1020FEF714
:103150004BFD002211461120FEF753FD1120FEF712
:1031600043FD08BD0010024000B585B0002001906D
:1031700002900390049000BF2A48806940F020002C
:10318000284988610846806900F02000009000BF4F
:1031900000BF00BF0846806940F00400886108460F
:1031A000806900F00400009000BF00BF00BF084627
:1031B000806940F0080088610846806900F00800D6
:1031C000009000BF00BF0022D0211748FEF790FCFE
:1031D000002240F6FA111548FEF78AFCD020019033
:1031E00001200290002003900220049001A90E48C3
:1031F000FEF7E8FA0120019000200290039001A957
:103200000A48FEF7DFFA40F6FA100190012002901A
:10321000002003900220049001A90448FEF7D2FA8E
:1032200005B000BD0010024000080140000C014044
:1032300010B50B480B4908604FF4964048600021D8
:1032400008488160C16001610C21416100218161F8
:10325000C161FFF78BFA08B1FDF7F9FD10BD000061
:1032600000380140780E002010B50F480F49086063
:103270004FF49640486000210C488160C1600161B4
:103280000C21416100218161C161FFF76FFA08B132
:10329000FDF7DDFD05480068C06840F020000349E7
:1032A0000968C86010BD000000440040B80E00204E
:1032B00000BFFEE77047000002480068C0F302202C
:1032C000704700000CED00E010B5002807DA0A078F
:1032D000140E054A00F00F031B1FD45403E00A0725
:1032E000130E024A135410BD18ED00E000E400E094
:1032F0007047000008B508490968C9084FF47A7298
:10330000B1FBF2F14143009100BF00BF00994A1E9A
:1033100000920029F9D108BDA400002010B50122B7
:1033200002490348FFF7BCFB10BD00004600002027
:10333000B80E0020704700001FB5002000900190DB
:10334000029003904FF400700090002001900290D2
:103350000220039069460248FEF734FA1FBD0000C0
:10336000000C01401FB500200090019002900390D6
:103370004FF4007000900120019000200290022084
:10338000039069460148FEF71DFA1FBD000C01407D
:1033900010B5FEF7B9FB10BD00B593B0282109A800
:1033A000FCF7D7FE142104A8FCF7D3FE0020009000
:1033B000019002900390092009904FF480300A9008
:1033C00000200B9001200D900F9002201090C1035F
:1033D00011914FF4E011129109A8FEF7E5FE08B132
:1033E000FDF735FD0F200490022005900020069087
:1033F0004FF48060079000200890022104A8FEF797
:103400007BFD08B1FDF723FD0220009080030290B0
:103410006846FEF7D9FC08B1FDF719FD13B000BDF1
:103420001148006840F001000F49086008464068F4
:103430000E4908400C494860084600680C4908409D
:10344000094908600846006820F4802008600846A2
:10345000406820F4FE0048604FF41F008860C803F5
:103460000449086070470000001002400000FFF8A7
:10347000FFFFF6FE08ED00E070B505466C6A00201F
:10348000E085E0842046FFF7C9F870BD70B50646B8
:103490000025746A20684069C0F3C01594F83900AB
:1034A000212805D125B10020E084204600F082F8D3
:1034B00020684069C0F3801594F83A00222805D1AD
:1034C00025B10020E085204600F054F8E06B40F084
:1034D0001000E0632046FFF7A1F870BD70B5054607
:1034E0006C6A2868006800F02000B0B90020E08510
:1034F0002068C06820F480702168C8602068406936
:1035000020F00100216848612068406920F04000F7
:1035100021684861202084F83A002046FFF7F8FA35
:1035200070BD70B50446656A2846FFF713FB70BD91
:1035300070B505466C6A2868006800F0200070B914
:103540000020E0842068406920F080002168486104
:103550002068C06840F040002168C86002E0204652
:10356000FFF75AFB70BD70B50446656A2846FFF741
:103570006BFB70BD0168C96821F490710268D1606D
:103580000168496921F0010102685161202180F838
:103590003A10704710B504462068C06820F040001B
:1035A0002168C860202084F839002046FFF734FBEA
:1035B000002010BD0168C96821F0C0010268D16017
:1035C000202180F83910704770B5044694F83A000D
:1035D00022284AD1A068B0F5805F13D1A56A20697E
:1035E00040B920684068C0F308002880A06A801CA9
:1035F000A06219E020684068C0B22880A06A401C20
:10360000A06211E0206938B920684068C1B2A26A9E
:10361000501CA062117007E02068406800F07F0134
:10362000A26A501CA0621170E08D401E80B2E0853D
:10363000C8B92068C06820F020002168C8602068F0
:10364000C06820F480702168C8602068406920F05C
:10365000010021684861202084F83A002046FFF7E5
:1036600057FA002070BD0020FCE70220FAE70000B6
:103670002DE9F041044600252068006920F44050FF
:10368000E1680843216808612169A068084361690D
:10369000084305432068C06841F20C618843284311
:1036A0002168C8602068406920F44070A16908431F
:1036B000216848615F49206888425CD1FEF71AFDA5
:1036C00000EBC00101EB001061688900B0FBF1F66E
:1036D000FEF710FD00EBC00101EB001061688900EE
:1036E000B0FBF1F06421B0FBF1F000EBC00101EBA5
:1036F0000010A6EB8000322101EB00106421B0FB2A
:10370000F1F000F0F006FEF7F5FC00EBC00101EB74
:10371000001061688900B0FBF1F06421B0FBF1F0AA
:1037200006EB0016FEF7E6FC00EBC00101EB001013
:1037300061688900B0FBF1F7FEF7DCFC00EBC0012B
:1037400001EB001061688900B0FBF1F06421B0FB6F
:10375000F1F000EBC00101EB0010A7EB800032217B
:1037600001EB00106421B0FBF1F000F00F003044D9
:10377000216888605BE0FEF7ADFC00EBC00101EB67
:10378000001061688900B0FBF1F6FEF7A3FC00EBC6
:10379000C00101EB001061688900B0FBF1F0642109
:1037A000B0FBF1F000EBC00101EB0010A6EB8000D4
:1037B000322101EB00106421B0FBF1F000F0F006C3
:1037C000FEF788FC00EBC00101EB00106168890086
:1037D000B0FBF1F06421B0FBF1F006EB0016FEF750
:1037E00079FC00EBC00101EB001061688900B0FBBF
:1037F000F1F7FEF76FFC00EBC00101EB0010616810
:103800008900B0FBF1F06421B0FBF1F000EBC001E6
:1038100001EB0010A7EB8000322101EB00106421C6
:10382000B0FBF1F000F00F00304421688860BDE883
:10383000F081000000380140014691F8390021284C
:103840002CD18868B0F5805F0FD10A6A1088C0F368
:1038500008000B685860086918B9086A801C08627B
:1038600009E0086A401C086205E00B6A581C0862FF
:1038700018780B685860C88C401E80B2C88458B94C
:103880000868C06820F080000B68D8600868C068CD
:1038900040F040000B68D860002070470220FCE731
:1038A00010B50348FEF7BCFEFFF7F2FB10BD0000A9
:1038B000780E002010B50348FEF7B2FEFFF72EFD8C
:1038C00010BD0000B80E002000BFFEE70FB4084B8B
:1038D00010B504A902AA039800F0E2F8044602A970
:1038E000002000F074FC204610BC5DF814FB0000C2
:1038F000CF41000800487047E000002002E008C8FF
:10390000121F08C1002AFAD170477047002001E059
:1039100001C1121F002AFBD1704700002DE9FF5F93
:1039200082B00021DDE90430020DDDF840B0034330
:1039300018D044F61050A2F2FF32424315141198E9
:1039400001281FD0A5EB0B00401C5FEA000A4FF0D6
:1039500000064E4FDFF83891B046504615D5CAF1F3
:10396000000413E0119801244AA3012801D16FEA51
:103970000B010298119AC0E90031C0E9024206B079
:10398000BDE8F09FCBF10000DFE704460021404A8C
:10399000491842EB0450CDE9001012E0E00707D0CF
:1039A00032463B4640464946FCF7E3FC80468946A2
:1039B00032463B4610461946FCF7DBFC06460F46EE
:1039C0006410002CEAD1DDE90401DDE90023BAF13D
:1039D000000F06DAFCF7CDFC42464B46FCF7C9FC6B
:1039E00005E0FCF738FD42464B46FCF734FD044643
:1039F0000E460022284BFCF7DFFF03D84FF0FF30C4
:103A0000014607E00022254B20463146FCF715FF12
:103A1000FCF7BAFF102409E0002C0ADB0A2200237D
:103A2000FCF70EFE039B30321A55641E50EA010269
:103A3000F2D1641C039AC4F111031444119A012AAF
:103A400003D0012208430DD10AE0084304D000202E
:103A50004FF0110B119072E7A3EB0B056D1E0DE0FB
:103A60005B4504DD4FF0000205F1010504E003DAD7
:103A70004FF00002A5F10105002AECD0029811993F
:103A8000C0E90231C0E9004579E7000000001440B8
:103A90000000F03F300000000000F0430000E03F75
:103AA0002DE9FF4F95B09B468946064600250FE25B
:103AB000252877D100242746F84A0121059400E003
:103AC000044316F8013F203B01FA03F01042F7D1FE
:103AD00030782A2811D06FF02F033078A0F130020F
:103AE000092A16D8059A44F0020402EB820203EB7D
:103AF00042021044761C0590EFE759F8042B05921A
:103B0000002A03DA504244F40054059044F00204C1
:103B1000761C30782E2816D116F8010F44F00404D4
:103B20002A280DD06FF02F023078A0F13003092B36
:103B300009D807EB870302EB4303C718761CF3E7AA
:103B400059F8047B761C30786C280FD006DC4C28A2
:103B500017D068280DD06A2814D104E0742810D03A
:103B60007A280FD10DE044F400140AE044F48014E4
:103B700001E044F440147278824202D104F58014CA
:103B8000761C761C307866280BD013DC582877D04A
:103B900009DC002875D04528F6D04628F4D04728FF
:103BA0001AD19DE118E0632835D0642879D06528C2
:103BB00012D195E1702873D008DC6728F1D069280C
:103BC0006FD06E280DD06F2806D1B5E073282CD0A9
:103BD000752875D0782874D05A46179990476D1C6F
:103BE00075E1C4F30250022809D003280DD0D9F89A
:103BF000001004280DD00D6009F1040967E1D9F81F
:103C00000010EA17C1E90052F6E7D9F800100D805C
:103C1000F2E70D70F0E719F8041B8DF80010002092
:103C20008DF80100EA46012003E059F804AB4FF09B
:103C3000FF3061074FF0000102D40DE008F10101EF
:103C40008846B9420FDA8045F8DB1AF808100029D7
:103C5000F4D108E008F1010188468142FADB1AF844
:103C600008100029F6D105985B46A0EB080721460D
:103C70003846179A00F094FA284400EB080507E04C
:103C80004DE029E10DE01AF8010B5A4617999047CB
:103C9000B8F10108F7D25B4621463846179A13E17E
:103CA00042E00A220092C4F302524FF0000A022AB4
:103CB00008D059F804CB032A4FEAEC710AD00DE082
:103CC00029E02AE009F1070121F00702F2E802C128
:103CD000914609E00FFA8CFC4FEAEC71042A03D1FB
:103CE0004FFA8CFC4FEAEC71002907DA0A460021F2
:103CF000DCF1000C61EB02012D2202E0220504D56B
:103D00002B228DF80420012203E0E20701D02022BB
:103D1000F7E7904659E00A2102E010220DE0102159
:103D20004FF0000A00910BE010224FF0000A44F01F
:103D300004040827009203E008224FF0000A0092D2
:103D4000C4F30252022A05D059F804CB0021032AF9
:103D500008D009E009F1070121F00702F2E802C1E9
:103D6000914605E01FFA8CFC042A01D10CF0FF0CEF
:103D70004FF00008220728D5702806D0009B83F05A
:103D8000100353EA0A0305D00EE040228DF8042008
:103D9000012208E05CEA010206D030228DF80420FE
:103DA0008DF8050002229046009B83F0080353EA39
:103DB0000A030AD15CEA010201D1620705D530226B
:103DC0008DF804204FF001087F1E582804D034A03D
:103DD00003900EA802900DE036A0F9E75346604626
:103DE000009AFCF72DFC84460398825C0298401EE2
:103DF000029002705CEA0100F0D1029806A9081A4C
:103E000000F1200A600702D524F4803400E0012785
:103E1000574502DDA7EB0A0000E0002000EB0A0195
:103E2000009005984144401A0590E00306D45B4693
:103E30002146179A059800F0B3F90544002706E0DB
:103E400001A85A46C05D179990476D1C7F1C4745D5
:103E5000F6DBE0030CD55B462146179A059800F087
:103E60009FF9054404E030205A46179990476D1C8D
:103E70000099481E00900029F5DC08E0029802999C
:103E80005A460078491C0291179990476D1CBAF167
:103E90000001AAF1010AF1DC65E100000928010036
:103EA00030313233343536373839616263646566B0
:103EB0000000000030313233343536373839414272
:103EC000434445460000000000F058F90544761CC4
:103ED000307800287FF4ECAD19B02846BDE8F08FAB
:103EE000620700D4062709F1070222F0070CFCE85C
:103EF0000223E14603F000485FEA080C02D00FF20B
:103F0000702C0DE05FEA045C02D50FF2682C07E02C
:103F10005FEAC47C02D00FF2602C01E0AFF2700CBB
:103F20004FF0FF3823F00043CDF850C065280CD087
:103F300006DC452809D046281DD047283DD13DE064
:103F4000662818D067287ED138E00021112F01DBC8
:103F5000112000E0781CCDE9000106A90EA8FFF7AA
:103F6000DDFCDDE90F010E9A03910021009207F1BB
:103F7000010A04914DE04FF000400097CDE9011097
:103F800006A90EA8FFF7CAFCDDE90F0203920E9BFB
:103F900011990022DDF80CA00093049211B9791C4C
:103FA00000EB010AB7EB0A0004D4C0F1FF3007F1BF
:103FB000010A0490AAEB0700019044E0012F00DA07
:103FC00001270021112F01DD112000E03846CDE945
:103FD000000106A90EA8FFF7A1FCDDE90F010E9A6A
:103FE0000391002104910092BA4621070CD4039951
:103FF000514500DA8A46BAF1010F05DD009AAAF1AF
:104000000101515C302908D0B84202DA10F1040FE6
:1040100006DA0121CDE9011015E0AAF10101E9E775
:10402000002805DC049901440491AAEB000102E098
:10403000411C514500DD8A460499401A401C0190FC
:104040004FF000400290200704D40198504501DB56
:10405000CDF8048000208DF84F0002980DF14F0735
:10406000B0F1004F25D02B200E9002984FF002089F
:1040700000280CDA404202902D200E9007E00A2121
:104080000298FCF7C7FA3031029007F8011DB8F129
:104090000001A8F10108F2DC02980028EFD1791E96
:1040A0000E980870307800F0200040F0450007F8C6
:1040B000020D12A8C01B00F107081498007800B187
:1040C000012000EB0A01019801EBE07105984144E1
:1040D000401A401E0590E00306D45B462146179A1D
:1040E000059800F05DF805441498007818B15A4618
:1040F000179990476D1CE00324D55B462146179A1B
:10410000059800F04DF805441CE00498002807DBF2
:10411000DDE90301884203DD0098405C179901E066
:10412000179930205A469047049805F10105401C24
:1041300004900198401E019004D12E205A461799F0
:1041400090476D1CBAF10001AAF1010ADDDC05E01F
:1041500017F8010B5A46179990476D1CB8F10001EA
:10416000A8F10108F4DC5B462146179A0598ABE6F6
:104170002D0000002B000000200000002DE9F04180
:10418000044600251E461746880404D405E0394637
:104190002020B0476D1C641EF9D52846BDE8F0818B
:1041A0002DE9F041044600251E469046C80301D57E
:1041B000302700E02027880404D505E04146384632
:1041C000B0476D1C641EF9D52846BDE8F0810A6829
:1041D000531C0B601070704710B50246084800234E
:1041E000037000BFB2FBF1F301FB1323054CE45C49
:1041F000431E18461C70B2FBF1F2002AF2D110BD2A
:10420000A50D002030000020D0F800345A1CC0F862
:104210000024C154704770B504460D462846FBF78C
:10422000B5FF0646002007E02A5CD4F80034591C8C
:10423000C4F80014E254401CB042F5DB70BD00002D
:104240000021002004E0064A32F810201144401CEE
:104250001428F8DB1420B1FBF0F0C0B27047000066
:10426000A60D0020002006E0094A411C32F811107A
:1042700022F81010401C1328F6DB0648007814289A
:1042800004DA04480078401C0249087070470000B6
:10429000A60D00204D00002010B5FDF72FFC204991
:1042A0000968401A322837D300244FF4FA711D48A8
:1042B000FCF77CFF18B91B48FCF77AFE84B240F685
:1042C000FF70001B84B240F22A30844201DA0024DD
:1042D00002E0A4F22A3084B26420604340F6D54163
:1042E00090FBF1F084B2FFF7BDFF0F48C4840F4884
:1042F000007814280BDBFFF7A3FF04460C48007876
:10430000A04204D00A490C7001200A490870FDF748
:10431000F5FB0349086000BF00F00EF810BD000077
:1043200050000020F80D0020A60D00204D000020B8
:10433000840000209400002000B599B0FDF7DEFB5A
:1043400037490968401AB0F57A7F67D33548007855
:104350000A2806DA3448006818B9FDF7CFFB32495D
:104360000860324800680A2807DD2E4800780A28CD
:1043700003DAFDF7C3FB2C4908602A4800781428AB
:1043800009DB2B480078012805D100202849087056
:10439000012028490870234800780A2805DB0120FD
:1043A000214908600020244908701E4800780A2826
:1043B0002CDAFDF7A3FB1C490968401A47F230517B
:1043C000884223D91848006801281FD001201A49C3
:1043D000087000F097FCC8B100F0B8FCB0B9252314
:1043E0001648028816A16846FFF770FA694620A0B1
:1043F00000F042FB0E48007820B901200C490870FB
:104400000C49087001200849086000BF0548007881
:1044100006490860FDF772FB0149086019B000BD4C
:1044200054000020840000205C0000205800002080
:104430004C00002074000020600000208600002056
:104440004944253033642063616E682062616F2CBB
:1044500020646F20616D203C203130256320747210
:104460006F6E672033206E676179206C69656E001E
:1044700030333834353434373237000001462B2995
:1044800003D0302903DB392901DC012070470020EB
:10449000FCE770472DE9FE43074631A13846FBF79C
:1044A00063FE041E49D00025241D20788DF80000ED
:1044B00060788DF8010000208DF802006846FBF757
:1044C00083FEC5B2002D37DDA41C002632E04FF07C
:1044D000000820788DF8000060788DF80100A07841
:1044E0008DF8020000208DF803006846FBF76CFE93
:1044F00080461D480088404518D11C48007820B9E6
:10450000FFF7C7FF012019490870E41C2078312803
:1045100003D101201649087002E0002014490870F8
:10452000FDF7ECFA13490860641C01E0241D00E06B
:1045300000BF761CAE42CADB00BFFDF7DFFA0D49B3
:104540000968401A47F23051884207D3074800787B
:1045500020B100200549087000F014F8BDE8FE8382
:104560004757544800000000860000202800002023
:10457000720000202C0000200148007870470000E5
:1045800028000020002001490870704775000020B5
:1045900010B53AE02CB3232C0FD100201E49A1F80E
:1045A00080000846B0F88010B0F88000401C1A4A1D
:1045B000A2F880001046445427E0212C12D100219B
:1045C0001548B0F88020B0F88000401C124BA3F8CA
:1045D000800018468154FFF75DFF00200E49A1F8C6
:1045E000800012E00C48B0F88010B0F88000401C49
:1045F000094AA2F8800010464454B0F88000802890
:1046000003DB00201146A1F88000044800F0E0F927
:10461000041EBFDC10BD0000E40000206801002083
:1046200070B504460D4606480078012807D10020E1
:1046300003490870AAB221460248FEF79FFA70BDEE
:1046400041000020780E00209AB0FDF769FAFEF7CD
:10465000A3FEFEF789FDFEF74DFDFEF71BFDFEF7FD
:10466000E7FDFEF701FE012210219E48FDF740FA0A
:104670000122D1029C48FDF73BFA012202219A480F
:10468000FDF736FA0820102120224023CDE9003220
:10469000CDE90210944B802241011846FEF7F0FA52
:1046A000FEF79EFBFEF7E0FA90A0FEF7A7FB94480A
:1046B000FCF734FE002240218A48FDF719FA002257
:1046C00080218848FDF714FAFCF784FB08B1FCF759
:1046D000BEFBFEF7D1FCC820FDF760F800F0B2F990
:1046E000FDF70CFA87490860FAE0FFF7D5FD01F005
:1046F000B9F8FFF74DFF00F08FFE8348007848B10E
:1047000000224FF400617848FDF7F2F901207F495B
:10471000087007E00122D1027348FDF7E9F9002093
:104720007A490870FDF7EAF976490968401A47F2B4
:104730003051884202D37348006858B9FDF7DEF95A
:1047400073490968401A41F28831884223D36D4881
:10475000006800BBFFF710FFB0B96E48007898B949
:1047600000F0D0FA80B100F0F1FA68B96A48028826
:104770006AA101A8FFF7AAF801A971A000F07CF9CD
:1047800001206449087000BF00205E490860FDF701
:10479000B5F95F49086000F0D3FA002844D1FDF76D
:1047A000ADF96A490968401AB0F5FA7F40D3684804
:1047B0000078002833D0FEF75DFA66496648006845
:1047C000FBF767FD0646FBF7C7FE0A2190FBF1F2F7
:1047D00001FB120460480068FBF7BEFE05465F4817
:1047E000007823462A465EA1009014A8FFF76EF8D1
:1047F00014A8FEF703FBFFF7BFFE044600F082FAA1
:1048000005462B464448009402885AA114A8FFF795
:104810005DF8FEF729FA14A8FEF7F0FA00BFFDF7DD
:104820006DF94A49086003E0FDF768F947490860F7
:10483000FDF764F954490968401A40F61C41884262
:104840004CD34348007840B9FDF758F94F490968FF
:10485000401A40F6B831884239D33E493E48006894
:10486000FBF717FD0546FBF777FE0446274800785F
:1048700047490978394A12782346CDE90021029048
:104880002548028843A10DA8FFF720F80DA8FBF7E3
:104890007DFC044621460DA8FFF7C2FEFFF76CFE23
:1048A00080B94348007801280CD100F02BFA48B1B8
:1048B00000F04CFA30B90DA93EA000F0DDF8002060
:1048C0003B490870FDF71AF93049086000BFFDF751
:1048D00015F92D49086000201D490870FEF7A4FB5A
:1048E00003E7000000080140000C014049443A3150
:1048F0002020202020202020204C3A3000000000E2
:10490000F80D0020780000207200002073000020C5
:104910007C000020750000208600002049443A20D9
:10492000253033642063616E682062616F3A206DC8
:104930006174206B6574206E6F69206C6F7261000A
:104940003033383435343437323700008C000020AF
:1049500094000020000020418000002084000020FE
:10496000543A2532642E256420202020483A2533ED
:104970006425250049443A253033642020533A25E4
:104980006420204C3A25640088000020900000201C
:104990004C000020234944253033645448542530CA
:1049A0003464482530336450502564256421000068
:1049B0007400002030333933363134343839000054
:1049C0000021C0F8041CC0F8001CC0F8081C704787
:1049D00010B50146D1F8000CD1F8042C904203D157
:1049E0000020C1F8080C10BDD1F8042C885CD1F867
:1049F000042C521C4FF44063B2FBF3F403FB14226B
:104A0000C1F8042CD1F8082C521EC1F8082C00BFA4
:104A1000E9E730B5D0F8003C5B1C4FF44064B3FBD1
:104A2000F4F504FB1532D0F8043C934209D0D0F8D9
:104A3000003CC154C0F8002CD0F8083C5B1CC0F806
:104A4000083C30BD10B500F0A3FA022006490870FA
:104A5000012006490870002005490870FDF74EF84E
:104A60000449086010BD0000C4000020AE00002012
:104A7000BD000020B800002070B504460D4600F0CF
:104A800041F9F8B110480078E0B910480078C8B989
:104A90000F480078B0B929460E48FBF78CFB214639
:104AA0000D48FBF788FB00200C49087001200849DD
:104AB00008700B49087003200A490870FDF71EF8BA
:104AC0000949086070BD0000AC000020AE00002065
:104AD000A80000200810002088100020AA00002054
:104AE000D4000020C4000020D8000020704700003F
:104AF0000120014908707047B100002010B502483C
:104B0000FFF75EFF10BD0000141200207047000088
:104B10000120014908707047B400002000200149BD
:104B200008707047AE00002010B500200F490870D3
:104B30000F4908700F4908700F4908700F49087035
:104B40000F4908700F4908700F49087001200F497C
:104B5000087000200E490870FCF7D0FF0D4908606E
:104B600000200D4908700D49087010BDA9000020F3
:104B7000AB000020AC000020AE000020AA00002006
:104B8000A8000020B3000020B4000020C4000020D2
:104B9000B5000020B8000020BC000020BD000020AF
:104BA00070B505460E4614464A48007818B94A487A
:104BB0000078002859D047480078002828D00020E5
:104BC00044490870444908703046FBF7DFFA10B9D1
:104BD000FFF7AAFF70BDA01DC1B20120FEF71DF9AD
:104BE0003EA0FEF70BF901210220FEF716F93CA0CA
:104BF000FEF704F931463FA000F090FBFCF77EFF82
:104C00003D4908603D48047001203D490870E1E7D6
:104C10003148007800285AD000202E4908702E49CB
:104C2000087037480078042805DB2846FFF76EFF38
:104C300000F018FDCEE732480078012807DD304843
:104C400001780220FEF7E9F824A0FEF7D7F82946FC
:104C500028A000F063FB2A480078401C284908700F
:104C6000FCF74CFF24490860B4E7FCF747FF2249F2
:104C70000968401A40F6B831884228D30020154907
:104C80000870154908701E480078042805DB28467E
:104C9000FFF73CFF00F0E6FC9CE71948007801288C
:104CA00007DD174801780220FEF7B7F80BA0FEF7E2
:104CB000A5F829460FA000F031FB11480078401CF0
:104CC0000F490870FCF71AFF0B49086082E700BF24
:104CD00080E70000B3000020B40000202E00000098
:104CE00020202020202020202020202020202020C4
:104CF0000000000025730000B8000020B50000206F
:104D0000BC0000200948007868B10948007850B11B
:104D10000848007838B10848007820B10748007882
:104D200008B9012070470020FCE70000AF00002018
:104D3000B0000020B1000020B2000020AE00002032
:104D40000148007870470000AE000020014800785C
:104D500070470000A800002010B53348007818B94B
:104D600032480078002838D02F48007898B10020C9
:104D70002D4908702D4908702D49087000F0D2FCAB
:104D800000202C490870FCF7B9FE2B49086003206D
:104D90002A49087046E025480078002842D0254876
:104DA000007804280CDB00201F4908701F49087098
:104DB00000F008FD0120224908702049087010BD4C
:104DC000002019490870194908701EA000F0A6FAC1
:104DD000FCF794FE1849086024E0FCF78FFE1649A2
:104DE0000968401AB0F5FA6F1CD3124800780428FD
:104DF0000CDB00200C4908700C49087000F0E2FC44
:104E000001200F4908700D490870D8E700200649B5
:104E10000870064908700BA000F080FAFCF76EFEDF
:104E20000549086000BFCAE7B3000020B4000020B5
:104E3000A9000020DC000020D8000020D4000020C1
:104E4000C400002041540D0A0000000010B51E48A7
:104E5000007870B100201C4908701C4908701C497A
:104E6000087000F0B9FC01201A4908701A4908704E
:104E700010BD1648007870B100201349087013491E
:104E800008701349087000F09DFC0120114908705A
:104E900011490870ECE7FCF731FE10490968401A27
:104EA000B0F57A6F0ED300200749087007490870E3
:104EB0000749087000F086FC012006490870064981
:104EC0000870D5E700BFD3E7B3000020B40000208E
:104ED000A9000020C4000020D4000020D800002039
:104EE00010B522480078D0B100202149087021492E
:104EF00008702148FBF74AF9C4B21A201E49085528
:104F000000211D4A601C1154104600F007FAFCF7FE
:104F1000F5FD1A49086004201949087023E0FCF7E0
:104F2000EDFD16490968401AB0F57A6F1BD3154894
:104F3000007804280EDB00200D4908700D49087028
:104F40000A49087000F03EFC01200F4908700C4926
:104F5000087010BDFCF7D2FD084908600020034925
:104F6000087000F0DFFB00BFF3E70000A90000209D
:104F7000B3000020B400002008100020D80000205A
:104F8000D4000020DC000020C40000207047000096
:104F900010B5012210211348FCF7AAFD0020124988
:104FA00008701249087012490870124908701249B5
:104FB00008701249087012490870124908701249A5
:104FC0000870124908701249087012490870124995
:104FD000087012490870FFF791FDFCF78FFD10492A
:104FE000086010BD00080140C4000020B50000208A
:104FF000AD000020B0000020B1000020B200002071
:10500000AF000020B3000020B4000020AC0000205E
:10501000AB000020A9000020AA000020A80000206A
:10502000B80000200120014908707047B30000203B
:105030000120014908707047AF00002010B51148E9
:10504000007830B1012814D0022813D0032817D1DA
:1050500013E00D48007858B1FCF750FD0B49096882
:10506000401A40F6B831884202D302200549087040
:1050700006E005E000F00CF802E000F023F900BFC4
:1050800000BF10BDC4000020AD000020B80000200B
:1050900010B556480078082822D2DFE800F0042234
:1050A00080868C92989EFDF792FEFDF7DDFD50A064
:1050B000FDF7A4FE00205249086052480078401CC9
:1050C00050490870002210214F48FCF711FD0120C3
:1050D0004E49087045490870FCF710FD4C490860BE
:1050E00081E04A48007800B34A480078E8B14A486D
:1050F0000078D0B149480078B8B1FDF7B5FD48A0B7
:10510000FDF77CFE022039490870002049490870EB
:1051100049490870FFF7F2FC48A14AA000F0FEF8E8
:10512000FCF7ECFC3A4908605DE0FCF7E7FC464917
:105130000968401AB0F57A7F25D331480068401CD1
:105140002F49086008460068102807D9FDF792FD2E
:105150003EA0FDF753FE0320294908602848017846
:105160000220FDF75AFE3EA0FDF748FE24480068E5
:10517000022804D1FDF778FD3AA0FDF73FFEFCF7C9
:10518000BDFC31490860FCF7B9FC21490968401AA7
:1051900044F62061884201D300F064FA23E0032240
:1051A00034A126A0FFF7FCFC1DE0042234A131A0AD
:1051B000FFF7F6FC17E0052236A131A0FFF7F0FC5F
:1051C00011E0062237A133A0FFF7EAFC0BE007222B
:1051D00036A134A0FFF7E4FC05E0072214A133A0B8
:1051E000FFF7DEFC00BF00BF10BD0000B5000020CF
:1051F00053494D3A204F6E20506F77657200000082
:10520000D0000020BD00002000080140B0000020B8
:10521000B8000020B1000020AF000020B200002044
:1052200053494D3A202E20202020202020202020CD
:1052300000000000B3000020B400002041544530BD
:105240000D0A000025730000CC0000202020202043
:1052500020202020202020202020202000000000CE
:105260002E00000053494D3A205761697420726541
:105270006164790041542B434D47463D310D0A008E
:1052800041542B434E4D493D312C322C302C302C87
:10529000300D0A0041542B4353434C4B3D320D0A11
:1052A00000000000415426570D0A000041542B43D2
:1052B0004D4744413D2244454C20414C4C220D0A6F
:1052C0000000000010B511480078012806D002281F
:1052D00010D0032811D0042815D111E00CA000F043
:1052E0001DF80D480078401C0B4908700220074942
:1052F000087008E0FFF730FD05E0FFF7F1FD02E080
:10530000FFF7A4FD00BF00BF10BD0000D4000020C7
:1053100041540D0A00000000DC0000200FB4F0B57D
:10532000ADF20C4D0020CDF808040DF224400190A0
:10533000DDF8204452E02078252804D0217802A806
:10534000FEF762FF49E0601C04460078662823D01F
:1053500004DC632807D0642838D109E0732820D002
:10536000782833D125E0617802A8FEF74DFF32E0BE
:10537000019820C80190002D04DA6D422D2102A869
:10538000FEF742FF0A212846FEF726FF0746394668
:1053900002A8FEF740FF1EE017A102A8FEF73BFFA0
:1053A00019E0019840C80190314602A8FEF733FF8A
:1053B00011E0019820C8019010212846FEF70CFF4B
:1053C0000746394602A8FEF726FF04E0217802A826
:1053D000FEF71AFF00BF00BF00BF641C2078002842
:1053E000A9D1019002A8DDF8081400F087F90DF2A8
:1053F0000C4DF0BC5DF814FB205B6E6F7420737570
:1054000070706F7274207072696E746620646F754C
:10541000626C655D2000000010B500F0B7F8FFF782
:105420000DFE10BD70B5404890F8F20001280FD174
:105430003E48B0F8800000280ADD3C493A48FAF7B7
:10544000BAFE0020384981F8F20000F099F970BDE9
:1054500037A13648FAF7A1FE10B9FFF7E3FDF6E7EA
:1054600035A13248FAF799FE10B9FFF751FBEEE784
:1054700033A12E48FAF791FE10B9FFF739FBE6E7A2
:1054800033A12A48FAF789FE10B900F073F9DEE774
:1054900032A12648FAF781FE10B9FFF727FBD6E7BD
:1054A00030A12248FAF779FE10B9FFF76FFDCEE779
:1054B00030A11E48FAF771FE10B900F013F9C6E7E3
:1054C0002EA11A48FAF769FE10B9FFF7B1FDBEE741
:1054D0002CA11648FAF748FE18B30120124981F8AA
:1054E000F20000250024002318E01048C25C012CC3
:1054F0000DD11046FEF7C2FF30B12846691CCDB26F
:105500000949C8310A5402E0222A00D19FE71CB998
:10551000222A01D1012400E000BF5B1C162BE4DB32
:1055200000BF00BF93E700009C10002090110020F6
:105530004F4B0D0A000000004552524F520D0A0019
:1055400043616C6C2052656164790D0A00000000B3
:10555000534D532052656164790D0A0042555359E9
:105560000D0A00004E4F20434152524945520D0A48
:105570000000000052494E470D0A00005244590DE8
:105580000A0000002B434D543A00000038B50020BB
:105590000090022457E09DF80000002853D02D48C9
:1055A000B0F88000802841DA9DF800102948B0F852
:1055B0008020B0F88000401C264BA3F880001846DD
:1055C0008154B0F88000A04226DB012500200CE0C9
:1055D0002049B1F88010221A891A1E4A515C1EA275
:1055E000125C914200D00025401CA042F0DB012D4E
:1055F00011D100211748B0F88020B0F88000401C7D
:10560000144BA3F8800018468154FFF70BFF0020CD
:105610001049A1F8800000BF0E48B0F88000802833
:1056200008DB00200B49A1F8800003E000200949B5
:10563000A1F880000948007828B19DF800003E28B4
:1056400001D100F0D5F80648FFF7C2F90090002814
:10565000A1DC38BD901100200D0A0000A800002038
:105660001412002010B5FFF793FC012010490870B8
:105670001048007802280CDB00200F4908700C4904
:1056800008700E490870FFF749FA002009490870B0
:1056900010BDFDF79CFBFDF7E7FA09A0FDF7AEFB97
:1056A000FDF7E8FA0AA0FDF7A9FB00BFF0E700004C
:1056B000AD000020BD000020AC000020C400002090
:1056C00053494D3A20696E6974206572726F720099
:1056D00052657472792E2E20202020202020202038
:1056E0000000000010B502A103A0FFF717FE10BDD7
:1056F0004154480D0A0000002573000070B50446AF
:105700000D4606480078012807D10020034908709B
:10571000AAB221460248FDF731FA70BD42000020CE
:10572000B80E002000B58FB0094B0AA20CA1684644
:10573000FEF7CCF86846FFF7F1FD0C480078401CF6
:105740000A490870FCF7DAF9094908600FB000BD92
:105750008810002041542B434D47533D000000006A
:105760002573222573220D0A00000000DC000020B2
:10577000D80000200120014908707047B2000020C5
:1057800010B509A10A48FAF7EFFC18B10120094940
:10579000087007E008A10648FAF7E6FC10B10020FF
:1057A0000449087010BD000050554D505F4F4E0029
:1057B0009C1000207200002050554D505F4F46460F
:1057C000000000000020024908700249087070477C
:1057D000A8000020AA000020012003490870002032
:1057E0000249087070470000AA000020A8000020AD
:1057F0000120014908707047A900002070B50025FC
:1058000000240AE0084931F81400FAF793FE06462E
:105810002946FAF7E6FC0546641C142CF2DB034922
:105820002846FAF768FD70BDCE0D00200000A041AB
:10583000002006E0094A411C32F8111022F810102D
:10584000401C1328F6DB06480078142804DA0448C4
:105850000078401C0249087070470000CE0D0020FF
:10586000640000202DE9F041FCF748F91B49096864
:10587000401A32282DD3FBF71FFA0446FFF7D8FF52
:105880002046FAF782FE1649C88416480078142884
:105890001ADBFFF7B3FF054613492846FAF7F9FC70
:1058A0000646FAF759FE07460F4910480068FAF70E
:1058B000F0FC0646FAF750FE874204D001200C495E
:1058C00008700A48046000BFFCF718F90349086033
:1058D00000BF00F00FF8BDE8F08100006800002074
:1058E000CE0D002064000020000020418000002038
:1058F0009400002010B59AB0FCF700F91849096827
:10590000401A1849884228D3174918480068FAF7FE
:1059100077FE1ED2164915480068FAF767FE18D2BE
:10592000FFF7F0F998B1FFF711FA80B90F48006856
:10593000FAF712FE044623460E4802880EA101A87B
:10594000FDF7C4FF01A917A0FFF796F801E01AB010
:1059500010BDFCF7D3F80249086000BFF7E700006C
:105960006C00002080EE36000000344280000020F1
:105970000000F04286000020494425303364206353
:10598000616E682062616F2C206E686965742064A6
:105990006F2063616F3A202530336420646F2043A9
:1059A00000000000303338343534343732370000EB
:1059B00000000000000000000102030406070809BF
:1059C000000000000102030400404040404040400D
:1059D00040404141414141404040404040404040C2
:1059E0004040404040404040400502020202020266
:1059F00002020202020202020220202020202020B5
:105A000020202002020202020202909090909090C8
:105A10001010101010101010101010101010101086
:105A200010101010020202020202888888888888FA
:105A300008080808080808080808080808080808E6
:105A4000080808080202020240000000C9590008C4
:105A5000705A000800000020E4000000FC38000834
:105A6000545B0008E40000203C3D00000C390008B5
:105A70000100000000000000000000000000000025
:105A80000000000000000000000000000000000016
:105A9000000000000F3800000000000000000000BF
:105AA0003031323334353637383941424344454654
:105AB00000010100000000000000000000000000E4
:105AC00000000000000000000000000000000000D6
:105AD00000000000000000000000000000000000C6
