:020000040800F2
:10000000E83D002001010008A3270008492300085B
:10001000A1270008D50B0008D92C0008000000001B
:100020000000000000000000000000007928000827
:10003000A10C000800000000612800087B280008CF
:100040001B0100081B0100081B0100081B01000820
:100050001B0100081B0100081B0100081B01000810
:100060001B0100081B0100081B0100081B01000800
:100070001B0100081B010008D90B0008E50B000854
:10008000F10B0008FD0B00081B0100081B01000814
:100090001B0100081B0100081B0100081B010008D0
:1000A0001B0100081B0100081B0100081B010008C0
:1000B0001B0100081B0100081B0100081B010008B0
:1000C0001B0100081B0100081B0100081B010008A0
:1000D0001B010008B12C0008C52C00081B010008FA
:1000E0001B0100081B0100081B010008DFF80CD0F1
:1000F00000F0A0FC00480047F5380008E83D00206B
:100100000648804706480047FEE7FEE7FEE7FEE7B1
:10011000FEE7FEE7FEE7FEE7FEE7FEE7F928000858
:10012000ED000008202A04DB203A21FA02F0002129
:10013000704721FA02F3D040C2F1200291400843F7
:1001400019467047D2B201E000F8012B491EFBD2DC
:1001500070470022F6E710B513460A4604461946D2
:10016000FFF7F0FF204610BD30B505462A460B4686
:1001700012F8010B13F8014B08B1A042F8D01CB1E2
:10018000002802D06D1CF1E7284630BD421C10F853
:10019000011B0029FBD1801A704710B5002200E036
:1001A000521C835C8C5CA34201D1002BF8D1D8B2E5
:1001B000E1B2401A10BD034611F8012B00F8012BE3
:1001C000002AF9D11846704770B5064602F09AFD2C
:1001D000046805460A220021304600F0BFFA2C6070
:1001E00070BDF0B480EA0102D40F4200B2EB410FBF
:1001F00002D20246084611464A0042D0C30DDDB283
:10020000C1F3C752AD1A202D35DAC1F3160141F4FE
:10021000000204B15242C5F1200602FA06F12A4159
:100220001044B3EBD05F23D0C4B1012DA0EBC35079
:1002300009DCF0BC4FF0004202EAC352DBB200F529
:10024000000000F0CCBA400000F1807000EBC35019
:10025000A0F1807040EAD170490009E0490841EA04
:10026000C071A0EBC35000F50000400800EBC35084
:10027000F0BC00F0ABBA6142012202EB4101001B6D
:10028000F6E7F0BC704781F00041AAE780F000403B
:10029000A7E780EA010210B502F00043400022D037
:1002A0004A001FD0010E01EB1261C0F35600C2F3E9
:1002B000560240F4000042F40002A0FB02200004B9
:1002C0007F39140400D0401C50EA124001D4400091
:1002D000491EC2B20C0604EBD010401C4008802A14
:1002E00002D003E0002010BD20F00100002900DA58
:1002F0000020184310BD30B480EA010202F000452E
:1003000030F0004221F0004013D090B1C30DD40D65
:10031000C2F31601C0F31600E41A41F4000140F4E0
:1003200000027D34914201D3641C00E04900002C9E
:1003300002DA30BC002070474FF4000000239142E5
:1003400001D3891A034340084FEA4101F7D151B163
:10035000914202D14FF0004105E002D24FF001017D
:1003600001E06FF0010103EBC450284430BC00F001
:100370002DBA2DE9FE4F804681EA0300C00F0C46DE
:10038000009021F0004123F00045B8EB0200A941A4
:1003900005D24046214690461C460B46024623F0B5
:1003A0000040104347D0270DC7F30A00C3F30A519A
:1003B0000290401A019040286BDAC3F3130040F416
:1003C000801B0098924620B10023D2EB030A63EB16
:1003D0000B0B01985946C0F14002504600F09DF9C0
:1003E00006460D4650465946019A00F0A5F910EB15
:1003F00008006141002487EA115284EAE7731A4336
:1004000040D0009A62B3019A012A4FEA075215DCE4
:10041000001B61EB02014FF0004202EA0752CDE9F6
:100420000042001C41F5801132462B4600F014FAC0
:1004300003B0BDE8F08F40462146F9E7001B61EBB1
:100440000201001C41F5801300185B412018A2F541
:10045000001747EB030140EAD570B6196D4111E072
:100460006D084FEA360645EAC0754FEA0752001B91
:1004700061EB0201001C41F5801149084FEA300090
:100480000019514132462B4603B0BDE8F04F00F051
:10049000D4B90098012240000023D0EB020263EBA4
:1004A000E073009821464FEAE074B8EB000061EB7E
:1004B0000401E9E783F000435BE781F0004158E77E
:1004C0002DE9FE4F81EA030404F0004421F00041CD
:1004D00000944FF0000B23F0004350EA01045ED07B
:1004E00052EA03045BD0C3F30A54C1F30A552C4407
:1004F000A4F2F3340194A0FB0254C1F3130141F4BC
:100500008011C3F3130343F4801301FB024400FB87
:10051000034E840A970A44EA815447EA8357A4FBAE
:10052000076802958D0A05FB07854FEA932C04FBAB
:100530000C542705029D4FEA065847EA1637B5EBDB
:1005400008056EEB070C870E920E47EA811742EA08
:100550008312A7FB0201B6EB0B0164EB00042B0D29
:1005600043EA0C335E1844EB1C50DA465146E7FB75
:100570000201C5F313044FEA0B3343EA14534FEA65
:100580000432019C43EA0603A4F10C040294009C8B
:10059000CDE900B400F060F903B0BDE8F08F0020B1
:1005A0000146F9E70EB540F2334102910021CDE951
:1005B00000110A460B4600F04FF903B000BD00F0F1
:1005C000004220F00040C10DC0F3160040F40000CE
:1005D0007F2901DA00207047962903DCC1F19601DA
:1005E000C84001E096398840002AF4D04042704764
:1005F00070B5C1F30A5201F000450024C1F31301A4
:1006000040F2FF3341F480119A4201DA002070BDBC
:1006100040F233439A42A2F2334203DC5242FFF7E4
:1006200081FD00E090402C43F1D0404270BD00F0CD
:10063000004230F000400AD0C10D01F56071C0F3F6
:10064000160042EA0151C2084007114370470020DA
:100650000146704701F0004330B421F0004150EAF8
:10066000010206D00A0DA2F56072C1F31301002A3F
:1006700002DC30BC00207047440F44EAC104C100D2
:10068000E01830BC00EBC25000F0A0B830B50B460B
:10069000014600202022012409E021FA02F59D42B2
:1006A00005D303FA02F5491B04FA02F52844151E86
:1006B000A2F10102F1DC30BD2DE9F05F054600201A
:1006C00092469B4688460646814640241BE02846C3
:1006D000414647462246FFF725FD53465A46C01A73
:1006E000914110D311461846224600F016F82D1AF3
:1006F00067EB01084F4622460120002100F00DF86B
:1007000017EB00094E41201EA4F10104DFDC48462E
:1007100031462A464346BDE8F09F202A04DB203AB2
:1007200000FA02F1002070479140C2F1200320FA44
:1007300003F3194390407047202A06DBCB17203A79
:1007400041FA02F043EAE07306E041FA02F3D040D6
:10075000C2F1200291400843194670472DE9F04745
:1007600091460F4680460446002614F8015B2DB1E1
:1007700000F072F90068405DC007F6D12B2D02D061
:100780002D2D18D0641E4A463946204600F068F9DF
:1007900027B13968A14201D1C7F8008071054FF037
:1007A00002040BD54042002803DD02F0ABFA0460DE
:1007B000A007BDE8F08746F48066E4E70028F8DA91
:1007C00002F0A0FA04606FF00040F2E70029A8BF31
:1007D0007047401C490008BF20F00100704710B46A
:1007E000B0FA80FC00FA0CF050EA010404BF10BC1F
:1007F000704749B1CCF1200421FA04F411FA0CF14C
:1008000018BF012121430843A3EB0C01CB1D4FEA84
:1008100000614FEA102042BF002010BC704700EB7F
:10082000C35010440029A4BF10BC7047401C4900AD
:1008300008BF20F0010010BC704710B5141E73F102
:10084000000408DA401C41F1000192185B411A4390
:1008500001D120F0010010BD2DE9F04D92469B46DC
:1008600011B1B1FA81F202E0B0FA80F22032904682
:10087000FFF753FF04460F4640EA0A0041EA0B0126
:1008800053465A46084313D0114653EA010019D083
:10089000C8F140025046FFF745FC05460E4650465B
:1008A00059464246FFF739FF084305D0012004E0CE
:1008B00020463946BDE8F08D0020054346EAE07643
:1008C0002C4337430A986305E40AA0EB0800002292
:1008D000FD0A44EA47540A3002D500200146E9E700
:1008E000010510196941DDE9084500196941BDE8B4
:1008F000F04DA2E72DE9F04D81EA030404F0004B2E
:1009000021F0004514464FF0000A23F0004150EA60
:10091000050220D054EA01021DD0C5F30A57024651
:10092000C5F31303C1F31300C1F30A5640F4801555
:1009300043F48013A7EB0608101BD64608F2FD38D7
:1009400073EB050002D308F1010801E092185B4146
:10095000B8F1000F03DA00200146BDE8F08D002059
:100960004FF48011064684460EE0171B73EB050713
:1009700005D3121B63EB050306434CEA010C49083F
:100980004FEA300092185B4150EA0107EDD152EA7C
:10099000030012D082EA040083EA0501084305D06F
:1009A000101BAB4106D20122002306E000224FF0CB
:1009B000004302E06FF0010253101AEB06004CEB0B
:1009C000085110EB0A0041EB0B01BDE8F04DFFF7B9
:1009D00034BFC1F30A52C1F3130140F2FF3341F4B3
:1009E00080119A4202DA00200146704740F23343F8
:1009F0009A42A2F2334202DC5242FFF793BBFFF766
:100A00008CBE000030B5041E71F1000404DB4FF011
:100A10000044404264EB0101141E73F1000405DB45
:100A20001C464FF00043524263EB0403994208BF57
:100A3000904230BD064C074D06E0E06840F00103EF
:100A400094E8070098471034AC42F6D3FFF752FB06
:100A50002849000848490008004870472449000810
:100A60002DE9F05F82460078002715468B460AF193
:100A70000104B946302801D09DB113E014F8010BF0
:100A80000127782803D0582801D045B10AE00DB1DC
:100A9000102D07D10027102514F8010B02E00825BE
:100AA00000E00A250026B0460EE005FB080005FB25
:100AB00006F1012701EB10461FFA80F8B6F5803FDA
:100AC00000D3B94614F8010B294600F018F80028A5
:100AD000EBDABBF1000F05D00FB1641E00E0544605
:100AE000CBF80040B9F1000F06D002F00BF902215B
:100AF0000160C81EBDE8F09F48EA0640FAE73A28C0
:100B000000D2303820F02002412A01D3A2F1370070
:100B1000884201D34FF0FF30704770B5044600683B
:100B20008168C943C9071BD1816821F00101816037
:100B300000F04AFD05460EE000F046FD401B02288D
:100B400009D9A06A40F01000A062E06A40F00100FC
:100B5000E062012070BD20688068C043C007EBD010
:100B6000002070BDF8B50026044600960068816834
:100B7000C943C90727D0816841F00101816013484A
:100B800013490068B0FBF1F000E0401E009000281F
:100B9000FBD100F019FD054610E000F015FD401BEB
:100BA00002280BD9A06A40F01000A062E06A40F071
:100BB0000100E06284F824600120F8BD20688068AC
:100BC000C043C007E9D10020F8BD00009400002018
:100BD00040420F00FEE70000014800F0E3BA0000C9
:100BE000BC0E0020014800F0DDBA0000000F00201C
:100BF000014800F0D7BA0000880F0020014800F03B
:100C0000D1BA0000440F002030B590F840500124C4
:100C1000AC40C56B6C60046863604368102B03686C
:100C200003D099600068C26030BD9A600068C160FE
:100C300030BD00000E48016801F08071016001685C
:100C400041F0807101600B48016821F001010160F1
:100C5000016841F0010101600021416000BF00BF57
:100C600000BF406808B100207047012070470000B5
:100C7000FCED00E0001000E070B5074C064665682A
:100C800000F0F6FE0549B0FBF1F171436068401BCE
:100C90008842FBD370BD0000001000E040420F000E
:100CA0007047FEE7F8B50023009390F824201C4617
:100CB000012A12D0012280F824204A681F26072A20
:100CC0000DD205686F6B521E02EB82029640B7434D
:100CD0000E68964037436F6319E00220F8BD05683F
:100CE0000D2A0AD22F6BD21F02EB82029640B74325
:100CF0000E68964037432F6309E0EF6A0D3A02EB26
:100D000082029640B7430E6896403743EF620A6806
:100D1000072605680A2A0AD3EF680A3A02EB42025C
:100D20009640B7438E6896403743EF6008E02F69DE
:100D300002EB42029640B7438E68964037432F61DC
:100D40000A68102A01D0112A20D1124D0268AA4245
:100D500017D195682D0219D4956845F40005956062
:100D60000968102912D10C490C4A0968B1FBF2F14B
:100D700001EB8101490000E0491E00910029FBD1EF
:100D800004E0816A41F020018162012380F824405F
:100D90001846F8BD002401409400002040420F0096
:100DA0000068C06C704700002DE9F0414FF000066C
:100DB000040035467DD0A06A002728B9E76284F890
:100DC0002470204600F07EF82046FFF7A6FEA16AB8
:100DD000C90600D420B1A06A40F01000A06268E00B
:100DE000A16A21F4885141F00201A1626268E169BF
:100DF000E3680A4346EA43010A43A1684FF4807658
:100E0000B14208D0012906D00021D4F814C0BCF1A9
:100E1000010F02D00AE03146F7E7F3B1A36A43F0CD
:100E20002003A362E36A43F00103E3622368D3F87B
:100E300004C02CF4694C4CEA010CC3F804C02168CE
:100E40008B68DFF874C003EA0C0313438B60A1685E
:100E5000B1420BD0012909D00CE0DFF860C0A369D2
:100E60000CEB43330B4343F40061DFE7218A0D05AC
:100E7000A5F580152168CB6A23F470032B43CB6260
:100E8000216889680E4B1940914208D1E762A16A36
:100E900021F0020141F00101A162BDE8F081A06AE8
:100EA00020F0020040F01000A062E06A40F0010073
:100EB000E0620120F1E70000FDF7E1FF00E0FFFF45
:100EC000FE0E1FFF00B585B0002100910191029137
:100ED000039100680E49884218D10E48816941F497
:100EE00080618161816901F480610491816941F0CF
:100EF000040181618069694600F0040004900120CA
:100F0000009003200190044800F070FA05B000BD85
:100F10000028014000100240000801402DE9F8437C
:100F20004FF000080D460446CDF8008000F04CFB61
:100F3000064620688168C90508D5A06A40F02000EF
:100F4000A06284F824800120BDE8F8834168C905C7
:100F500003D4C06A10F4700F25D0022000F0FEFB0D
:100F600037490968B1FBF0F720680169354A114239
:100F70004FEA62024FEAA2131AD1C1684FEA621C1B
:100F800011EA0C0F14D10169114220D1C068184236
:100F90001DD114201EE0681C05D035B300F014FBF1
:100FA000801BA84221D8206800688007F3D529E07B
:100FB0000169114202D1C168194206D00269224971
:100FC0000A4206D1C068084203D1542002E0292019
:100FD00000E0FC204743009812E0681C0DD025B1CA
:100FE00000F0F2FA801BA84207D9A06A40F0040082
:100FF000A06284F824800320A6E70098401C00909B
:10100000B842EAD321686FF012000860A06A40F489
:101010000070A06220688068C0F3424007280CD1AD
:10102000E06850B9A06A20F48070A062A06AC00491
:1010300003D4A06A40F00100A062002084E7000011
:1010400094000020244992244992240070B504465B
:1010500090F8240001280DD0012084F824002046B7
:10106000FFF780FD01004FF0000205D084F8242036
:10107000084670BD022070BDA06A40F2012398436B
:1010800040F48070A0621F4D20681F4BA84218D109
:101090001E6816F4702F14D0A66A46F48016A66255
:1010A0001E68760505D5A66A26F4005646F48056D5
:1010B000A662A66AF6040AD5E66A26F00606E66285
:1010C00006E0A66A26F48016A6624668E9E7E262B0
:1010D00084F824206FF00202026020688268C2F364
:1010E0004242072A05D1A84208D11A6812F4702F8B
:1010F00004D0826842F480128260B9E7826842F4C8
:10110000A002F9E7002801400424014010B590F83E
:1011100021100024022903D00421816301243DE031
:1011200001680A6822F00E020A6001680A6822F06B
:1011300001020A601A4A0168914201D1012121E0AD
:10114000174A1432914201D110211BE0144A28326F
:10115000914201D1891515E0114A3C32914201D1E9
:1011600089140FE00E4A5032914202D14FF480317F
:1011700008E00B4A6432914202D14FF4801101E041
:101180004FF08071064A083A5160012180F8211021
:10119000002180F82010416B01B18847204610BD26
:1011A000080002402DE9F05FC16B0B6801680A6816
:1011B000046C4FF0040C0CFA04FC4A4DDFF828A133
:1011C0004A4E4B4FDFF82CB1DFF82CE11CEA030F3D
:1011D0002DD05FEA427C2AD50A68920603D40A68B9
:1011E00022F004020A600168A94201D1042119E039
:1011F000514501D1402115E0B14202D14FF4806147
:1012000010E0B94202D14FF480410BE0594502D1C0
:101210004FF4802106E0714502D14FF4800101E0D6
:101220004FF080612F4A083A5160C16A3BE04FF0AD
:10123000020808FA04F818EA030F4FF000094FF00B
:10124000010C35D05FEA827832D50A68920605D45F
:101250000A6822F00A020A6080F821C00168A942E7
:1012600001D1022119E0514501D1202115E0B142FF
:1012700002D14FF4007110E0B94202D14FF4005195
:101280000BE0594502D14FF4003106E0714502D11F
:101290004FF4001101E04FF00071124A083A51601A
:1012A00080F82090816A00291AD0BDE8F05F0847D5
:1012B0000825A5401D4213D0120711D50A6822F057
:1012C0000E020A6090F84010C26B0CFA01F15160F6
:1012D000C0F838C080F821C080F82090016BE2E7A8
:1012E000BDE8F09F080002401C00024030000240B0
:1012F00044000240580002406C00024030B528B360
:1013000002C8134A14230A44B2FBF3F29200C263E8
:10131000104A8263022242770B6843F6F0729343CD
:10132000D0E900242243D0E902452C43224304693A
:10133000224344692243846922431A430A600021FC
:101340004163012242770177084630BD012030BD5C
:10135000F8FFFDBF0000024070B5044690F8200081
:10136000002501280CD0012084F8200094F8216089
:101370000020012E06D084F820000225284670BDEA
:10138000022070BD022684F82160A06320680668F0
:1013900026F0010606602046FFF736FCE06A0028CA
:1013A0002068016802D041F00E0106E021F004013E
:1013B00001602068016841F00A010160206801684D
:1013C00041F001010160D9E770B5044600F0FCF876
:1013D0000546601C02D004480078044400F0F4F88C
:1013E000401BA042FAD370BD880000202DE9F84FC1
:1013F000DFF8A091002309F1040A0AF1040B1C464E
:101400004FF00F080BF1040E01270A68A7403A407D
:10141000BA4272D1DFF880C14D68A5EB0C06654574
:101420002BD00DDC032D34D005DC35B3012D19D0C4
:10143000022D2FD11BE0112D16D0122D2AD119E02B
:10144000B6F5881F19D006DCB6F5803F15D0B6F585
:10145000801F1FD111E0B6F5001F0ED0B6F5041F96
:1014600018D10AE0CB6815E0CB681B1D12E0CB68F1
:1014700008330FE0CB680C330CE08B682BB1012BE9
:101480004FF0080303D0476104E0042302E0076142
:1014900000E00023FF2A01D8064601E000F104061F
:1014A0004FEA840501D9A5F12005376808FA05FC43
:1014B00027EA0C0703FA05F547EA050737604D6888
:1014C000ED0060D5354DAE6946F00106AE61AD69FF
:1014D00024F0030605F001050095314D7719BE682B
:1014E000A5072D0F08FA05FC26EA0C06DFF8B4C0A4
:1014F000604503D14FF0000C17E044E0DFF8A8C0CE
:10150000604502D14FF0010C0FE0DFF8A0C060454C
:1015100002D14FF0020C08E0DFF894C0604502D120
:101520004FF0030C01E04FF0040C0CFA05FC4CEA00
:10153000060CC7F808C04D68D9F80060ED034D46A9
:1015400001D5164300E096432E604D68DAF800603E
:10155000AD03554601D5164300E096432E604D6815
:10156000DBF80060ED025D4601D5164300E09643CE
:101570002E604D68DEF80060AD02754601D5164359
:1015800000E096432E60641C102CFFF43DAFBDE8D4
:10159000F88F00000004014000001110001002400C
:1015A0000000014000080140000C01400010014013
:1015B000001401408068084000D0012070470AB143
:1015C000016170470904FBE701488068704700002B
:1015D0008800002070B5040011D021684CF6CC4082
:1015E0000860216845F255500860D4E90001416067
:1015F0002168A0688860FFF7E7FF054608E0012042
:1016000070BDFFF7E1FF401B302801D9032070BDFA
:101610002068C0680028F4D121684AF6AA20086032
:10162000002070BD00684AF6AA21016000207047C2
:101630000248816802781144816070478800002068
:10164000074810B5016841F010010160032000F067
:1016500073F8002000F006F800F024F8002010BD18
:101660000020024070B50D4D04464FF47A71287881
:10167000B1FBF0F00A490968B1FBF0F000F0D0FBD3
:1016800048B9102C07D200222146501E00F034F831
:1016900000206C6070BD012070BD0000880000203B
:1016A000940000200C4808B5816941F00101816176
:1016B000816901F001010091C16941F08051C1616E
:1016C000C069064900F080500090486820F0E06052
:1016D00040F00070486008BD00100240000001406A
:1016E00000F01F02012191404009800000F1E0203C
:1016F000C0F8001170470000F0B40E4B1B68C3F334
:101700000223C3F10704042C00D904241D1D072D56
:1017100001D2002300E0DB1E012606FA04F56D1E4F
:101720000D409D409E40761E164045EA0601F0BCE5
:1017300001F038B80CED00E0064A00F0070110682F
:101740004FF6FF03184040EA0120034908431060A8
:10175000704700000CED00E00000FA0510B50146EE
:1017600027A086B01DC88DE81D0029A0294C00685F
:1017700004900020012922D0022939D010291CD13F
:1017800061682268D20118D5C1F38342C9031DF8EC
:10179000020009D5616804AAC1F34041515C1E4AA8
:1017A000B2FBF1F1484301E01C494843616849023A
:1017B00003D440000321B0FBF1F006B010BD216A54
:1017C000C1F30122012A03D1890701D5D003F4E72F
:1017D000022A05D1616A890702D549F64040ECE743
:1017E000032AEAD121688903E7D54FF22440E4E7D0
:1017F00000F054F96168C1F38131491C4900DAE70E
:1018000002030405060708090A0B0C0D0E0F101041
:10181000010200000010024000127A0000093D00A1
:101820002DE9F84304460078344FC00752D0F869D8
:101830000025C00008D4F86940F08050F861F869CC
:10184000012500F0805000902D480168C90511D491
:101850000168804641F480710160FFF7B5FE0646DD
:1018600004E0FFF7B1FE801B642822D8D8F80000FE
:10187000C005F6D5386A10F4407020D0A18801F474
:10188000407181421BD0386A1E49012220F4407009
:101890000A6000220A603862C00710D0FFF794FE89
:1018A000064641F2883807E0FFF78EFE811B41456E
:1018B00002D90320BDE8F883386A8007F4D5386A76
:1018C000616820F44070084338621DB1F86920F067
:1018D0008050F8612078800705D57868A16820F4E9
:1018E0004040084378602078C00605D57868E168F4
:1018F00020F48000084378600020DBE700100240FD
:1019000000700040400442422DE9F047DFF850816A
:1019100004460E46D8F8000000F00700B0420CD292
:10192000D8F8001021F007013143C8F80010D8F8AA
:10193000000000F00700B0426DD12068494F8107D8
:1019400012D5400703D5786840F4E06078602078CD
:10195000000703D5786840F4605078607868A16823
:1019600020F0F000084378602078C00742D060681B
:10197000012816D03968022816D0890700294ADACA
:10198000796821F0030101437960FFF71DFE0546E8
:10199000606841F2883101280ED00228894617D0AC
:1019A00024E039688903E9E78901E7E7FFF70CFEDE
:1019B000411B494501D916E089467868C0F381008A
:1019C0000128F3D116E0FFF7FFFD411B49450AD876
:1019D0007868C0F381000228F5D10BE0FFF7F4FD31
:1019E000411B494502D90320BDE8F087786810F013
:1019F0000C0FF3D1D8F80010404601F00701B142B6
:101A00000BD9016821F0070131430160006800F043
:101A10000700B04201D00120E6E72078400705D555
:101A20007868E16820F4E060084378602078000777
:101A300006D57868216920F4605040EAC1007860DA
:101A400000F03CF87968084AC1F30311515CC840C2
:101A5000064908600020FFF705FE0020C4E70000EB
:101A60000020024000100240884800089400002036
:101A700001480068704700009400002004480549B0
:101A800000684968044AC1F30221515CC8407047AC
:101A900094000020001002409848000804480549BE
:101AA00000684968044AC1F3C221515CC8407047CC
:101AB00094000020001002409848000812A085B051
:101AC0000FC88DE80F0014A0144B006804905968EB
:101AD000134801F00C02042A10D0082A0ED1C1F3D9
:101AE0008342C9031DF802000AD5596804AAC1F34C
:101AF0004041515C0A4A5043B0FBF1F005B07047D9
:101B000008494843FAE700000203040506070809EC
:101B10000A0B0C0D0E0F1010010200000010024005
:101B200000127A0000093D002DE9F84F04460078C4
:101B3000B64DC00747D06868C0F38100012807D0C0
:101B40006868C0F38100022809D16868C00306D51F
:101B50002868800337D5606800286ED033E060685D
:101B6000B0F5803F0BD010B1B0F5A02F11D0286890
:101B700020F480302860286820F4802002E0286863
:101B800040F480302860606888B1FFF71DFD06468C
:101B900009E0286840F480202860F0E7FFF714FD92
:101BA000801B642873D828688003F7D50BE0FFF703
:101BB0000BFD064604E0FFF707FD801B6428F1D803
:101BC00028688003F7D42078DFF8448280074FF03C
:101BD000010A4FF0000939D5686810F00C0F07D0E2
:101BE0006868C0F38100022809D16868C00306D480
:101BF0002868800713D5206901281ED10FE02069CD
:101C0000A8B1C8F800A0FFF7DFFC064604E0FFF724
:101C1000DBFC801B0228C5D828688007F7D5286818
:101C2000616920F0F80040EAC10028600EE0C8F8C1
:101C30000090FFF7C9FC064605E0E5E0FFF7C4FCAD
:101C4000801B022823D828688007F7D42078000753
:101C50002CD57049A069D8B1C1F800A0FFF7B4FC39
:101C6000064604E0FFF7B0FC801B02280FD8686A24
:101C70008007F7D568484FF4FA510068B0FBF1F0DF
:101C8000009000BF0098411E0091FAD20EE07CE067
:101C9000C1F80090FFF798FC064604E0FFF794FCBB
:101CA000801B022871D8686A8007F7D42078400723
:101CB0005BD5E8690027C00008D4E86940F080508F
:101CC000E861E869012700F08050009053480168FE
:101CD000C90511D40168834641F480710160FFF7A2
:101CE00073FC064604E0FFF76FFC801B64284CD8A9
:101CF000DBF80000C005F6D5E06801280AD008B17D
:101D0000052813D0286A20F001002862286A20F0F4
:101D1000040002E0286A40F001002862E06841F215
:101D2000883B88B1FFF750FC064609E0286A40F07E
:101D300004002862EEE7FFF747FC811B59455BD89A
:101D4000286A8007F7D50BE0FFF73EFC064604E063
:101D5000FFF73AFC811B59454ED8286A8007F7D413
:101D60001FB1E86920F08050E861E069A8B36968B4
:101D7000C1F38101022947D00228484606D0C8F89D
:101D80006000FFF721FC044639E035E04746C8F81B
:101D90006000FFF719FC064604E0FFF715FC801B06
:101DA000022829D828688001F7D4206AB0F5803F3E
:101DB00005D16868A16820F4003008436860D4E960
:101DC00008010843696821F4741108436860C7F882
:101DD00060A0FFF7F9FB044605E013E0FFF7F4FB12
:101DE000001B022808D828688001F7D50AE0FFF711
:101DF000EBFB001B022802D90320BDE8F88F2868FE
:101E00008001F4D40020F8E70120F6E7001002403A
:101E100000004242800442429400002000700040D2
:101E200010B5401EB0F1807F01D3012010BD4FF0EE
:101E3000E02460610F21601700F0B4FC0020A06175
:101E400007202061002010BD7047000070B50268B7
:101E500004461068D168536910F00F0F50D003F09A
:101E6000010501F4907635435DD0C20705D0CA055F
:101E700003D5E26B42F00102E263420705D5DA07BF
:101E800003D0E26B42F00202E263820705D5DA0773
:101E900003D0E26B42F00402E263020705D5DA07E1
:101EA00003D0E26B42F00802E263E26B002A33D017
:101EB000800604D5880602D5204600F0C4FD2068BF
:101EC0004069E16BC0F38010090700D428B32046B5
:101ED00000F0A2FD2068416949061AD5416921F048
:101EE00040014161606BA0B11B494163606BFFF72A
:101EF0000DF9002810D0606B416BBDE870400847B9
:101F0000830610D58B060ED52046BDE8704000F044
:101F10009ABD2046FFF798FF70BD2046FFF794FF5B
:101F20000020E06370BD030606D50B0604D52046ED
:101F3000BDE8704000F08ABE4006F3D54806F1D5F2
:101F4000D168204621F04001D160202184F8391069
:101F500000F0E4F970BD00004129000870B50400EC
:101F600004D094F83900002510B106E0012070BDBE
:101F700084F83850204600F023F8242084F83900F3
:101F80002068C16821F40051C160204600F0A6FD20
:101F90002068016921F4904101612068416921F0C4
:101FA0002A0141612068C16841F40051C160E563C4
:101FB000202084F8390084F83A00002070BD000029
:101FC0002DE9F04385B00025009501950295039514
:101FD0000446DFF860C10168574802220323574EC8
:101FE00010274FF020094FF0800861454CD18169DE
:101FF00041F480418161816901F4804104918169EA
:1020000041F0040181618069694600F00400049098
:102010001002CDE9000203933046FFF7E7F93015CF
:10202000CDE90005694630460295FFF7DFF9454ED8
:102030004348C6E90007C6E9025835617561B561D4
:1020400047463046F561FFF759F908B1FEF729FE1A
:10205000266374623A483C4E1430C6E90005C6E96E
:1020600002573561C6E905593046F561FFF746F973
:1020700008B1FEF716FE6663002211462520746241
:10208000FFF73AFB252050E0DFF8C0C061454ED194
:10209000C16941F40031C161C16901F400310491A9
:1020A000816941F0040181618069694600F00400A2
:1020B00004900420CDE9000203933046FFF796F91F
:1020C0000820CDE90005694630460295FFF78EF9F4
:1020D0001B481F4E3C30C6E90007C6E9025835616F
:1020E0007561B56147463046F561FFF707F908B1FC
:1020F000FEF7D7FD266374621148164E2830C6E9F4
:102100000005C6E902573561C6E905593046F56153
:10211000FFF7F4F808B1FEF7C4FD6663002211462C
:1021200026207462FFF7E8FA2620FFF7D9FA05B0F7
:10213000BDE8F08300380140001002400008014073
:1021400044000240BC0E0020000F0020004400406C
:10215000440F0020880F002037B5044690F83A005D
:1021600082B0134620283AD1039AAAB3A3B394F8B5
:102170003800012833D0012084F83800A262A385FA
:102180000025E563222084F83A00616B15488862D7
:10219000616B1548C862616B14480863606B4563E6
:1021A0002168606B091DFFF7D7F820680168416856
:1021B000009184F83850C16841F48071C160206892
:1021C000416941F0010141612068416941F04001EC
:1021D0004161002005B030BDFFE70120FAE7022091
:1021E000F8E700009B290008D729000851290008BA
:1021F00090F83A30202B22D1F9B1F2B190F8383072
:10220000012B1CD081628285C2850021C1632222FC
:1022100080F83A2080F838100168CA6842F4807269
:10222000CA6001684A6942F001024A610068C168F7
:1022300041F02001C160002070470120704702205A
:102240007047000000680849884203D10748417878
:10225000074806E00749884205D10448C01C0178B8
:10226000054801F02ABE70470038014042000020B6
:102270007C01002000440040D8110020006804497F
:10228000884204D103480178034801F016BE704724
:1022900000380140420000207C010020F7B50446D0
:1022A00090F83900202831D1019969B362B394F8CC
:1022B000380001282AD0012084F838002162A28445
:1022C000E2840025E563212084F83900236B10485F
:1022D0009862236B0F48D862236B0F481863206BFA
:1022E000134645632668206B321DFFF735F82168D9
:1022F0006FF04000086084F838502068416941F070
:10230000800141610020FEBD0120FEBD0220FEBD16
:10231000E12900080F2A0008512900080068064B2F
:1023200001220649984201D10A707047044B984235
:10233000FBD14A7070470000003801404000002087
:10234000004400407047000000F00AF801A000F0CF
:1023500099F8FEE748617264206661756C7400004C
:102360000121084600F0A0B80121022000F09CB82D
:102370002DE9F04106AC94E8E0101D4CA061A1806D
:10238000E280236225826682A782A4F816C002201A
:1023900020702820A0701420FFF716F8032000F00A
:1023A00001F90520FFF710F8032000F0FBF80120E9
:1023B000FFF70AF8032000F0F5F80120FFF704F812
:1023C000022000F0EFF80120FEF7FEFF0F2000F0E2
:1023D0000DF9012000F00AF90320FEF7F5FF28208F
:1023E00000F004F9BDE8F0410320FEF7EDBF000066
:1023F0000000002010B5094C0122E188A069FFF718
:10240000DEF80A2000F016F80022E188A069FFF744
:10241000D6F8BDE810403C2000F00CB800000020C9
:10242000020003488188806900D00122FFF7C7B805
:10243000000000204FF47A71884202D3B0FBF1F023
:1024400000E00120FEF7C0BF10B5012000F0CEF87B
:10245000BDE810400320FEF7B7BF000003494878ED
:1024600020F00100487000F0C1B80000000000201A
:102470000349487820F00200487000F0B7B8000027
:102480000000002070B50646002409E00120FFF797
:10249000C7FF284600F014F8641CE4B2102C02D2E6
:1024A000355D002DF2D170BD491E01F00F010128EC
:1024B00003D041F0C00000F099B841F08000FAE785
:1024C0002DE9F84F0109364C01F0080301F0040B27
:1024D000227801F0020901F0010700F0080A00F07B
:1024E000040600F0020500F001080093012A2FD035
:1024F000022A52D13A46218A206AFFF760F84A46FA
:10250000618A206AFFF75BF85A46A18A206AFFF7C2
:1025100056F8E18A009A206AFFF751F8FFF76AFF40
:102520004246218A206AFFF74AF82A46618A206AD1
:10253000FFF745F83246A18A206AFFF740F8524675
:10254000E18A206AFFF73BF8BDE8F84FFFF752BF7A
:1025500042462189E069FFF732F82A466189E0693D
:10256000FFF72DF83246A189E069FFF728F85246B7
:10257000E189E069FFF723F83A46218A206AFFF7EC
:102580001EF84A46618A206AFFF719F85A46A18A5E
:10259000206AFFF714F8009AD2E7BDE8F88F000030
:1025A0000000002070B504460020FFF739FF0E4DF3
:1025B00004F00102298A286AFFF701F804F00202F8
:1025C000698A286AFEF7FBFF04F00402A98A286AD8
:1025D000FEF7F5FF04F00802E98A286AFEF7EFFF2C
:1025E000BDE87040FFF706BF0000002010B50446AC
:1025F0000020FFF715FF2046BDE81040FFF760BF41
:1026000070B50E4E01213046FEF7D4FF0C4D044646
:10261000687850B9012C08D1287840B100220221F5
:102620003046FEF7CCFF002028706C7070BD012290
:1026300002213046FEF7C3FF0120F5E7000C014000
:1026400064000020022202490248FFF785BD000015
:10265000420000203C0E0020704700003EB50024E0
:102660001048009401940E49029401600125C0E9CC
:102670000245446105614FF460214460C161FEF789
:1026800093FB00B1FEE706200094CDE901506946B6
:102690000448FEF707FB002800D0FEE73EBD00001F
:1026A00000280140000E00202DE9F04385B00024F1
:1026B00029480094019402940394816941F0200117
:1026C0008161816901F020010491816941F0040177
:1026D0008161816901F004010491816941F008017F
:1026E00081618069DFF8748000F0080004900022A6
:1026F000D0214046FEF763FFDFF8649042F6F237E0
:10270000002239464846FEF75AFF01250320CDE94D
:10271000005069464046FEF769FED0200226CDE90A
:102720000005CDE9024669464046FEF75FFE41F2EC
:102730000100CDE90004694648460294FEF756FEC2
:1027400000970396CDE9015469464846FEF74EFED0
:1027500005B0BDE8F0830000001002400008014011
:10276000000C014010B50D4C0B480C2120604FF4BB
:10277000964060600020A060E060C4E90401A061B0
:10278000E0612046FFF7EAFB00B1FEE72068C16880
:1027900041F02001C16010BD004400407C0E0020CB
:1027A000FEE770470907090E002806DA00F00F005F
:1027B00000F1E02080F8141D704700F1E02080F85F
:1027C0000014704770B5FEF7FFFE1E4C47F2305103
:1027D000A268801A884233D31B4D1C4B01211AB9C1
:1027E0001868A84200DA6170E068A84203DB1A6842
:1027F000AA4200DA6170164E164AA84213DA186827
:10280000A84210DA6078144D401CC0B260700228F3
:1028100002D0032802D006E0297004E02970107865
:1028200008B91170317018680C4B984204DB1378AA
:1028300013B1002313703170E060FEF7C5FEA06095
:1028400070BD0000540000200000D0407400002043
:102850006A0000206B0000206D0000209A99D9408A
:1028600070470000012202490248FFF7C1BC000086
:10287000450000207C0E00207047FEF7D9BE30B521
:1028800093B028216846FDF764FC14210AA8FDF7DF
:1028900060FC00240F9409200121109400901194F1
:1028A00012944FF4803004910691CDE90104022581
:1028B000CDE907504FF4E01009906846FFF734F96E
:1028C00000B1FEE70F20CDE90A054FF48060CDE9A5
:1028D0000C4002210AA80E94FFF716F800B1FEE79B
:1028E0004FF4004011900F950FA8FEF799FF0028B4
:1028F00000D0FEE713B030BD0D48016841F0010182
:10290000016041680B4A1140416001680A4A114068
:102910000160016821F480210160416821F4FE0119
:1029200041604FF41F0181600449C0030860704793
:10293000001002400000FFF8FFFFF6FE08ED00E087
:1029400010B5406A0021C185C184FFF77DFA10BD32
:1029500070B5446A2068406994F83910C0F3C0101B
:102960000025212904D118B1E584204600F062F841
:102970002068406994F83A10C0F38010222904D1ED
:1029800018B1E585204600F047F8E06B40F01000F4
:10299000E0632046FFF758FA70BD10B50146406A63
:1029A00009680968890613D40021C1850168CA68CD
:1029B00022F48072CA6001684A6922F001024A6109
:1029C00001684A6922F040024A61202180F83A10E9
:1029D000FFF738FC10BD10B5406AFFF74FFC10BD83
:1029E00010B50146406A0968096889060CD40021BF
:1029F000C18401684A6922F080024A610068C168A6
:102A000041F04001C16010BDFFF788FC10BD10B55A
:102A1000406AFFF797FC10BD0168CA6822F4907203
:102A2000CA6001684A6922F001024A61202180F8E7
:102A30003A1070470168CA6822F0C002CA602021BB
:102A400080F83910704710B590F83A10222901D05B
:102A5000022010BD8168B1F5805F11D001690029A5
:102A600001681FD0496801F07F03816A4A1C8262B5
:102A70000B70C18D491E0904090CC18518D02BE0CB
:102A80000269816A002A0268526805D0D2B20A80BF
:102A9000816A491C8162ECE7C2F308020A80816AFC
:102AA000891CF7E74A68816A4B1C83620A70E0E779
:102AB0000168CA6822F02002CA600168CA6822F46C
:102AC0008072CA6001684A6922F001024A612021CD
:102AD00080F83A10FFF7B6FB002010BD2DE9F04159
:102AE000044600680169E26821F440511143016124
:102AF000A16820690143606901432068C26841F20E
:102B00000C639A430A43C26020684169A26921F4B8
:102B10004071114341614C49206864263227884244
:102B20003CD1FEF7BBFF00EBC00101EB0010616878
:102B30008900B0FBF1F5FEF7B1FF00EBC00101EB3E
:102B400000106168B8468900B0FBF1F0B0FBF6F008
:102B50006FF01801484305EB800107EB0110B0FB53
:102B6000F6F000F0F005FEF799FF00EBC00101EB75
:102B7000001061688900B0FBF1F0B0FBF6F005EBE6
:102B80000015FEF78BFF00EBC00101EB0010616840
:102B90008900B0FBF1F7FEF781FF3BE0FEF76EFF27
:102BA00000EBC00101EB001061688900B0FBF1F59A
:102BB000FEF764FF00EBC00101EB00106168B8464E
:102BC0008900B0FBF1F0B0FBF6F06FF0180148435C
:102BD00005EB800107EB0110B0FBF6F000F0F0050B
:102BE000FEF74CFF00EBC00101EB001061688900AB
:102BF000B0FBF1F0B0FBF6F005EB0015FEF73EFF81
:102C000000EBC00101EB001061688900B0FBF1F737
:102C1000FEF734FF00EBC00101EB00106168890092
:102C2000B0FBF1F0B0FBF6F06FF01801484307EB92
:102C3000800108EB0110B0FBF6F0216800F00F00F6
:102C400028448860BDE8F0810038014090F83910D0
:102C5000212901D0022070478168B1F5805F016AA7
:102C60000BD04A1C0262026809785160C18C491E6F
:102C70000904090CC1840ED017E009880268C1F369
:102C80000801516001690029016A02D0491C0162F2
:102C9000ECE7891CFBE70168CA6822F08002CA6081
:102CA0000068C16841F04001C16000207047000029
:102CB00010B50348FFF7CAF8BDE81040FFF7CCBCD9
:102CC0003C0E002010B50348FFF7C0F8BDE81040E7
:102CD000FFF7C8BD7C0E0020FEE700000FB4084BD4
:102CE00010B504A902AA039800F0E2F8044602A96C
:102CF000002000F074FC204610BC5DF814FB0000BE
:102D0000DF35000800487047C000002002E008C816
:102D1000121F08C1002AFAD170477047002001E055
:102D200001C1121F002AFBD1704700002DE9FF5F8F
:102D300082B00021DDE90430020DDDF840B003432C
:102D400018D044F61050A2F2FF32424315141198E5
:102D500001281FD0A5EB0B00401C5FEA000A4FF0D2
:102D600000064E4FDFF83891B046504615D5CAF1EF
:102D7000000413E0119801244AA3012801D16FEA4D
:102D80000B010298119AC0E90031C0E9024206B075
:102D9000BDE8F09FCBF10000DFE704460021404A88
:102DA000491842EB0450CDE9001012E0E00707D0CB
:102DB00032463B4640464946FDF782FB80468946FF
:102DC00032463B4610461946FDF77AFB06460F464B
:102DD0006410002CEAD1DDE90401DDE90023BAF139
:102DE000000F06DAFDF76CFB42464B46FDF768FB29
:102DF00005E0FDF77FFD42464B46FDF77BFD0446AF
:102E00000E460022284BFDF7FDFD03D84FF0FF30A2
:102E1000014607E00022254B20463146FDF7A9FA7E
:102E2000FDF7D7FD102409E0002C0ADB0A2200235D
:102E3000FDF742FC039B30321A55641E50EA010232
:102E4000F2D1641C039AC4F111031444119A012AAB
:102E500003D0012208430DD10AE0084304D000202A
:102E60004FF0110B119072E7A3EB0B056D1E0DE0F7
:102E70005B4504DD4FF0000205F1010504E003DAD3
:102E80004FF00002A5F10105002AECD0029811993B
:102E9000C0E90231C0E9004579E7000000001440B4
:102EA0000000F03F300000000000F0430000E03F71
:102EB0002DE9FF4F95B09B468946064600250FE257
:102EC000252877D100242746F84A0121059400E0FF
:102ED000044316F8013F203B01FA03F01042F7D1FA
:102EE00030782A2811D06FF02F033078A0F130020B
:102EF000092A16D8059A44F0020402EB820203EB79
:102F000042021044761C0590EFE759F8042B059215
:102F1000002A03DA504244F40054059044F00204BD
:102F2000761C30782E2816D116F8010F44F00404D0
:102F30002A280DD06FF02F023078A0F13003092B32
:102F400009D807EB870302EB4303C718761CF3E7A6
:102F500059F8047B761C30786C280FD006DC4C289E
:102F600017D068280DD06A2814D104E0742810D036
:102F70007A280FD10DE044F400140AE044F48014E0
:102F800001E044F440147278824202D104F58014C6
:102F9000761C761C307866280BD013DC582877D046
:102FA00009DC002875D04528F6D04628F4D04728FB
:102FB0001AD19DE118E0632835D0642879D06528BE
:102FC00012D195E1702873D008DC6728F1D0692808
:102FD0006FD06E280DD06F2806D1B5E073282CD0A5
:102FE000752875D0782874D05A46179990476D1C6B
:102FF00075E1C4F30250022809D003280DD0D9F896
:10300000001004280DD00D6009F1040967E1D9F81A
:103010000010EA17C1E90052F6E7D9F800100D8058
:10302000F2E70D70F0E719F8041B8DF8001000208E
:103030008DF80100EA46012003E059F804AB4FF097
:10304000FF3061074FF0000102D40DE008F10101EB
:103050008846B9420FDA8045F8DB1AF808100029D3
:10306000F4D108E008F1010188468142FADB1AF840
:1030700008100029F6D105985B46A0EB0807214609
:103080003846179A00F094FA284400EB080507E048
:103090004DE029E10DE01AF8010B5A4617999047C7
:1030A000B8F10108F7D25B4621463846179A13E17A
:1030B00042E00A220092C4F302524FF0000A022AB0
:1030C00008D059F804CB032A4FEAEC710AD00DE07E
:1030D00029E02AE009F1070121F00702F2E802C124
:1030E000914609E00FFA8CFC4FEAEC71042A03D1F7
:1030F0004FFA8CFC4FEAEC71002907DA0A460021EE
:10310000DCF1000C61EB02012D2202E0220504D566
:103110002B228DF80420012203E0E20701D02022B7
:10312000F7E7904659E00A2102E010220DE0102155
:103130004FF0000A00910BE010224FF0000A44F01B
:1031400004040827009203E008224FF0000A0092CE
:10315000C4F30252022A05D059F804CB0021032AF5
:1031600008D009E009F1070121F00702F2E802C1E5
:10317000914605E01FFA8CFC042A01D10CF0FF0CEB
:103180004FF00008220728D5702806D0009B83F056
:10319000100353EA0A0305D00EE040228DF8042004
:1031A000012208E05CEA010206D030228DF80420FA
:1031B0008DF8050002229046009B83F0080353EA35
:1031C0000A030AD15CEA010201D1620705D5302267
:1031D0008DF804204FF001087F1E582804D034A039
:1031E00003900EA802900DE036A0F9E75346604622
:1031F000009AFDF761FA84460398825C0298401EAB
:10320000029002705CEA0100F0D1029806A9081A47
:1032100000F1200A600702D524F4803400E0012781
:10322000574502DDA7EB0A0000E0002000EB0A0191
:10323000009005984144401A0590E00306D45B468F
:103240002146179A059800F0B3F90544002706E0D7
:1032500001A85A46C05D179990476D1C7F1C4745D1
:10326000F6DBE0030CD55B462146179A059800F083
:103270009FF9054404E030205A46179990476D1C89
:103280000099481E00900029F5DC08E00298029998
:103290005A460078491C0291179990476D1CBAF163
:1032A0000001AAF1010AF1DC65E100000928010032
:1032B00030313233343536373839616263646566AC
:1032C000000000003031323334353637383941426E
:1032D000434445460000000000F058F90544761CC0
:1032E000307800287FF4ECAD19B02846BDE8F08FA7
:1032F000620700D4062709F1070222F0070CFCE858
:103300000223E14603F000485FEA080C02D00FF206
:10331000702C0DE05FEA045C02D50FF2682C07E028
:103320005FEAC47C02D00FF2602C01E0AFF2700CB7
:103330004FF0FF3823F00043CDF850C065280CD083
:1033400006DC452809D046281DD047283DD13DE060
:10335000662818D067287ED138E00021112F01DBC4
:10336000112000E0781CCDE9000106A90EA8FFF7A6
:10337000DDFCDDE90F010E9A03910021009207F1B7
:10338000010A04914DE04FF000400097CDE9011093
:1033900006A90EA8FFF7CAFCDDE90F0203920E9BF7
:1033A00011990022DDF80CA00093049211B9791C48
:1033B00000EB010AB7EB0A0004D4C0F1FF3007F1BB
:1033C000010A0490AAEB0700019044E0012F00DA03
:1033D00001270021112F01DD112000E03846CDE941
:1033E000000106A90EA8FFF7A1FCDDE90F010E9A66
:1033F0000391002104910092BA4621070CD403994D
:10340000514500DA8A46BAF1010F05DD009AAAF1AA
:103410000101515C302908D0B84202DA10F1040FE2
:1034200006DA0121CDE9011015E0AAF10101E9E771
:10343000002805DC049901440491AAEB000102E094
:10344000411C514500DD8A460499401A401C0190F8
:103450004FF000400290200704D40198504501DB52
:10346000CDF8048000208DF84F0002980DF14F0731
:10347000B0F1004F25D02B200E9002984FF002089B
:1034800000280CDA404202902D200E9007E00A211D
:103490000298FDF7FBF83031029007F8011DB8F1F2
:1034A0000001A8F10108F2DC02980028EFD1791E92
:1034B0000E980870307800F0200040F0450007F8C2
:1034C000020D12A8C01B00F107081498007800B183
:1034D000012000EB0A01019801EBE07105984144DD
:1034E000401A401E0590E00306D45B462146179A19
:1034F000059800F05DF805441498007818B15A4614
:10350000179990476D1CE00324D55B462146179A16
:10351000059800F04DF805441CE00498002807DBEE
:10352000DDE90301884203DD0098405C179901E062
:10353000179930205A469047049805F10105401C20
:1035400004900198401E019004D12E205A461799EC
:1035500090476D1CBAF10001AAF1010ADDDC05E01B
:1035600017F8010B5A46179990476D1CB8F10001E6
:10357000A8F10108F4DC5B462146179A0598ABE6F2
:103580002D0000002B000000200000002DE9F0417C
:10359000044600251E461746880404D405E0394633
:1035A0002020B0476D1C641EF9D52846BDE8F08187
:1035B0002DE9F041044600251E469046C80301D57A
:1035C000302700E02027880404D505E0414638462E
:1035D000B0476D1C641EF9D52846BDE8F0810A6825
:1035E000531C0B601070704770B5FDF7EDFF164C63
:1035F0006168401A64281ED300F066FB034600F0A1
:1036000075F81248436220780A2811D300F056F862
:1036100001220F4B0F49A0F51C550F3D0FD0C0F1F3
:10362000AA00FA2804D20D88A84201D008801A7096
:10363000FDF7CAFF6060BDE8704000F00DB8AA2039
:1036400008801A7070BD000048000020880D00201E
:10365000670000206E00002010B5FDF7B5FF124C8A
:10366000A168401A42F2107188421CD30F48618849
:1036700001220088431A0E490A2B08DB642806D968
:10368000AA280CD00B7813B90A4B0A701A7050286C
:1036900005D20B781BB100230B7007490A706080BC
:1036A000FDF792FFA06010BD480000206E000020D2
:1036B0006C000020680000206900002010B5002187
:1036C000094C0A46084654F82030FA2B01D21A4415
:1036D000491C401C0A28F6DB072902DBB2FBF1F08B
:1036E00010BD42F20F7010BD880D00200849002067
:1036F00001EB8002526841F82020401C0928F7DBCA
:10370000044908780A2801D2401C0870704700005C
:10371000880D002048000020094A10B5002302F857
:10372000313F084BB0FBF1F401FB1404B0FBF1F0A6
:103730001C5D02F8014D0028F4D1104610BD0000B8
:10374000C400002024000020D0F80024531CC0F83E
:1037500000348154704770B504460D460846FCF7A6
:1037600015FD0346002007E0D4F80024295C561C10
:10377000C4F80064A154401C9842F5DB70BD2B28AE
:1037800002D03038092801D8012070470020704746
:103790002DE9FE432DA1FCF7E7FC2E4E4FF000086B
:1037A000E0B3041D00798DF8000060788DF8010009
:1037B00045468DF802806846FCF706FDC1B204EB71
:1037C000810414F8040F8DF8000060788DF8010072
:1037D0008DF802506846FCF7F7FC10F0FF0722D086
:1037E0000025DFF87490A41C1BE020788DF8000001
:1037F00060788DF80100A0788DF802008DF80380C4
:103800006846FCF7E1FCB9F80010814207D1307836
:1038100008B901203070FDF7D7FE706003E0E41CAA
:103820006D1CBD42E1DBFDF7CFFE7168411A47F226
:103830003050814207D33078002804D0074986F8F9
:10384000008081F80080BDE8FE830000475754489F
:1038500000000000380000207000002066000020FA
:1038600001480078704700003800002070B500253E
:10387000174C11E010D0232815D0212819D0B4F806
:1038800080106054B4F88000401C80B2A4F880001E
:10389000802801D3A4F880500D48843000F0ECFA61
:1038A0000028E7D170BD20704FF00100A4F880001F
:1038B000F2E7B4F88000255434F8800F00F10100DD
:1038C00020800348FFF764FF24F88059E4E70000F4
:1038D000F8000020054A1378002B06D0002313704F
:1038E0008AB201460248FEF7D9BC7047400000206A
:1038F0003C0E0020ACB0FDF7A3FEFEF7C0FFFEF7C4
:10390000D3FEB048416941F00101416140690022A4
:1039100000F00100009011460E20FDF7EDFE0E2094
:10392000FDF7DEFE002211460F20FDF7E5FE0F2019
:10393000FDF7D6FE002211461020FDF7DDFE102017
:10394000FDF7CEFE002211461120FDF7D5FE112015
:10395000FDF7C6FE9D489C4901600321416040F689
:103960009F718160FDF736FE00B1FEE797489849E8
:103970000C30002501604FF49641C0E901150C217F
:10398000C560C0E904518561C561FEF7E7FA00B181
:10399000FEE7FEF7E7FEFEF761FE8E4C01221021E6
:1039A0002046FDF70CFEFDF745F900B1FEE78A4E13
:1039B000012202213046FDF702FE10232022402181
:1039C00080208DE80F003346420081001846FEF744
:1039D000CFFCFEF743FDFEF74BFDFEF7C1FC7FA0D9
:1039E000FEF750FD79483038FDF730FB00224021CA
:1039F0002046FDF7E4FD002280212046FDF7DFFD93
:103A0000FEF720FEC820FDF7DFFC00F06FFAFDF79F
:103A1000DBFD744C47F2305740F6DE58E061FFF7AB
:103A2000E3FD00F0C9F9FFF721FF00F093FDFDF77A
:103A3000CBFDE169401AB84200D349B9FDF7C4FD96
:103A4000216A401A41F2883188421BD3E069C8B923
:103A5000FFF706FF90B9A07880B900F031FB68B19C
:103A600000F042FB50B9A2895FA16846FFF736F922
:103A7000694666A000F04AFA0120A070E561FDF7F2
:103A8000A3FD206200F02AFB002840D1FDF79CFD39
:103A9000A169401AB0F5FA7F3CD3E078002836D00F
:103AA000FEF762FC6689A6F51C500F380BD0206922
:103AB000C82E0FD9FCF7BBFD0B46024656A102A843
:103AC000FFF70CF90FE02069FCF7B1FD0B46024649
:103AD00055A1F4E7FCF7ABFDCDE90001324656A154
:103AE00002A8FFF7FBF802A8FEF7CCFCFFF7B8FE30
:103AF000064600F0E5FA03460096A28952A102A804
:103B0000FFF7ECF8FEF72CFC02A8FEF7BBFCFDF774
:103B10005BFDA061FDF758FD6169411A41454BD33A
:103B20004E492069FCF7B5FBFCF749FDE279217AA3
:103B3000CDE9000202916389A28949A11EA8FFF77D
:103B4000CDF81EA8FCF722FB01461EA8FFF7C2FE17
:103B5000607A78B100F0B4FA60B100F0C5FA48B903
:103B6000A28946A16846FFF7B9F8694627A000F088
:103B7000CDF96572FFF774FED0B900F0A1FAB8B1C3
:103B800000F0B2FAA0B9607920B144A146A000F0DB
:103B9000BDF96571207920B146A143A000F0B6F9C6
:103BA0002571A07920B11EA944A000F0AFF9A5713C
:103BB000FDF70AFD6061E570FEF722FD0348FDF7A1
:103BC00031FD2CE70010024000300040300E002094
:103BD0000038014000080140000C01404E6F646550
:103BE000203200006400002049443A20253033642C
:103BF0002063616E682062616F3A206D6174206B92
:103C00006574206E6F69206C6F72610030333834D8
:103C10003534343732370000443A3E3230302020D9
:103C20002050483A25336600443A203F2020202087
:103C30002050483A25336600443A25346420202039
:103C400050483A253366000049443A253033642011
:103C500020533A256420204C3A256400000020417E
:103C6000234944253033644450442530346450257E
:103C700030336450502564256421000049442530C8
:103C800033642063616E682062616F3A20646F2044
:103C90005048203C20362E350000000050554D5035
:103CA0005F4F46460000000030333936323236343A
:103CB0003839000050554D505F4F4E003033393386
:103CC00036313434383900002DE9F041224E0024D9
:103CD0004FF40055224629463046FDF770FC05207A
:103CE000FCF7CAFF012229463046FDF768FC462052
:103CF000FCF7C2FF002229463046FDF760FCFDF7C5
:103D000063FC054642F20F78B71404E0FDF75CFC53
:103D1000401B142812D239463046FDF74BFC0028D0
:103D2000F4D041F6B84539463046FDF743FC40B182
:103D30000120641CFCF7A0FFAC42F4D34046BDE870
:103D4000F0812046FCF72EFC044A054BFCF7B8FB3B
:103D5000FCF74EFC80B2F2E7000C01409CC420B09E
:103D60007268A13F70B50020064D044655F8241036
:103D7000FCF737FA641C142CF8DBBDE870400249EC
:103D8000FCF7B9BAB00D00200000A041084900209E
:103D900001EB8002526841F82020401C1328F7DB19
:103DA00004490878142801D2401C087070470000AC
:103DB000B00D00205400002070B5FDF705FC204D2B
:103DC0006968401A322836D30A211E48FDF7A6F842
:103DD00018B91C48FCF7E4FF84B24FF4A5704443C3
:103DE00040F6FF70B4FBF0F0FCF7DCFB164A174B13
:103DF000FCF766FB164A174BFCF7BBFAFCF72AFCEC
:103E0000034610F1FF4F01D3002303E01248834221
:103E100000DD0346FFF7BAFF1048C3642878142872
:103E200003D3FFF79FFF0E490860FDF7CDFB0D4957
:103E3000686001200870BDE87040FEF7C3BC000058
:103E400054000020000E00207C613255302AB9BF9A
:103E50003F355EBA49CC354000006041B00D0020CE
:103E600074000020670000200021C0F8041CC0F886
:103E7000001CC0F8081C704710B5D0F8001CD0F822
:103E8000042C914204D10021C0F8081C084610BD42
:103E9000D0F8041C435CD0F8041C4FF44062491C69
:103EA000B1FBF2F402FB1411C0F8041CD0F8081C9A
:103EB000491EC0F8081C184610BD10B5D0F8002CDB
:103EC0004FF44063521CB2FBF3F403FB1422D0F80E
:103ED000043C934209D0D0F8003CC154C0F8002CF7
:103EE000D0F8081C491CC0F8081C10BD10B500F023
:103EF00091F9054C022020740120A0710020E0738C
:103F0000FDF762FB606110BD9800002070B50B46A4
:103F1000054600F0D5F8002819D00D4C2279A0797B
:103F200002432078024312D119460A48FCF743F9AC
:103F3000084829468030FCF73EF90020A070012097
:103F40002070607403202074FDF73EFB606270BD3A
:103F500098000020CC0F00200148FFF785BF00002B
:103F6000D8110020704700000149002008707047F8
:103F70009E00002010B50F480024164904700E481A
:103F800004700E4804700E4804700E4804700E4809
:103F900004700E4804700E480470012008700E482A
:103FA0000470FDF711FB0D4908600D4804700D48C1
:103FB000047010BD990000209B0000209C00002090
:103FC0009E0000209A00002098000020A3000020FE
:103FD000A4000020A8000020A5000020AC000020C4
:103FE000A6000020A70000202DE9F0412C4D8846B6
:103FF0000646E87A297B174650EA01024FF0000492
:104000003AD020B3EC722C734046FCF7BFF8D0B125
:10401000B81DC1B20120FEF747FA22A0FEF732FA1E
:1040200001210220FEF740FA1FA0FEF72BFA4146BD
:1040300022A000F037FAFDF7C7FA68616F7301201C
:10404000A873BDE8F081BDE8F041FFF793BFD9B98F
:10405000F7E7012905D90220FEF726FA11A0FEF79D
:1040600011FA314615A000F01DFAA87B401CA87378
:10407000FDF7AAFA6861E4E7FDF7A6FA6969401A54
:1040800040F6B8318842DCD3EC722C73A97B04294A
:10409000DFD33046FFF766FFBDE8F04100F06CBBB0
:1040A000980000202E00000020202020202020202A
:1040B0002020202020202020000000002573000068
:1040C0000549C8790A7A10404A7A10408A7A897973
:1040D0001040884370470000980000200148807914
:1040E00070470000980000200148007870470000E9
:1040F0009800002070B5184C4FF000054FF00106F5
:10410000E07A217B50EA010215D058B1E57225739F
:10411000657000F07FFBA574FDF756FA606203201E
:10412000607470BD71B970BD0CA000F0BBF9FDF7F3
:104130004BFA606270BDFDF747FA616A401AB0F54C
:10414000FA6FF7D3A07CE57204282573ECD300F056
:1041500085FB2674667470BD9800002041540D0ADA
:104160000000000070B50E4C00250126E07A28B151
:10417000E5722573657000F07BFB0DE0207B30B9A4
:10418000FDF722FA616A401AB0F57A6F06D3E5723C
:104190002573657000F062FB2674667470BD0000C4
:1041A0009800002070B5194C0025607890B1E57238
:1041B00025731748FBF7EAFF1549C0B21A220A54C3
:1041C00008444570084600F06DF9FDF7FDF960629E
:1041D000042010E0FDF7F8F9616A401AB0F57A6F33
:1041E0000AD3A07C042808D3E5722573657000F01B
:1041F00035FB01202074607470BDFDF7E5F9606245
:104200006570BDE8704000F005BB0000980000201C
:10421000CC0F002010B5012210210C48FDF7CFF97A
:104220000B4C002020746073607120726072A07269
:10423000E071E07220732071E0706070A0702070F7
:10424000FFF78AFEFDF7C0F9606110BD000801406C
:104250009800002010B50F4C207C48B1012814D0E4
:10426000022813D0032810D1BDE8104000F0F4B8A4
:104270006079002809D0FDF7A7F96169401A40F676
:10428000B831884201D30220207410BDBDE810402F
:1042900000F002B89800002070B5434C0025607B08
:1042A000082833D2DFE800F0041865696D7175796C
:1042B000FEF7CAF8FEF754F83CA0FEF7E3F82562D3
:1042C000E07B0022401CE07310213C48FDF777F9A9
:1042D00001202072607316E0207A617A0840E1794B
:1042E0000840A17A084212D0FEF73AF834A0FEF74F
:1042F000C9F802206073E5722573FFF72DFE35A122
:1043000036A000F0CFF8FDF75FF9606170BDFDF7F2
:104310005BF9E169401AB0F57A7F1ED3206A401C30
:104320002062102806D9FEF71FF82DA0FEF7AAF884
:104330000320206294F820100220FEF7B5F82DA08B
:10434000FEF7A0F8206A022804D1FEF709F82AA097
:10435000FEF798F8FDF738F9E061FDF735F9616986
:10436000401A44F620618842D0D3BDE8704000F086
:1043700003BA032224A117A012E0042225A122A03F
:104380000EE0052228A123A00AE006222AA126A0E9
:1043900006E007222AA128A002E007220CA128A0FB
:1043A000BDE87040FFF720BE9800002053494D3A09
:1043B000204F6E20506F77657200000000080140AA
:1043C00053494D3A202E202020202020202020203C
:1043D00000000000415445300D0A00002573000024
:1043E00020202020202020202020202020202020CD
:1043F000000000002E00000053494D3A205761692B
:10440000742072656164790041542B434D47463DE9
:10441000310D0A0041542B434E4D493D312C322C75
:10442000302C302C300D0A0041542B4353434C4B5D
:104430003D320D0A00000000415426570D0A0000CD
:1044400041542B434D4744413D2244454C20414C6F
:104450004C220D0A0000000010B50F4C607C0128B2
:1044600009D0022810D0032812D004280BD1BDE8AF
:104470001040FFF777BE09A000F014F8A07C401CA4
:10448000A0740220607410BDBDE81040FFF732BE7A
:10449000BDE81040FFF786BE9800002041540D0A89
:1044A000000000000FB4002070B5ADF5816D0DF275
:1044B0001C44CDF80004DDF8185415E025290FD16F
:1044C00015F8011F66292DD004DC632907D0642963
:1044D00006D116E0732927D0782901D126E0697822
:1044E0006846FFF731F96D1C29780029E6D1684646
:1044F000DDF8001400F07EF90DF5816D70BC5DF8FB
:1045000014FB40CC002E04DA76422D216846FFF7DA
:104510001BF90A213046FFF7FFF801466846FFF70E
:104520001AF9E0E703A1F9E702CCF7E701CC102183
:10453000F1E70000205B6E6F7420737570706F720E
:1045400074207072696E746620646F75626C655D4C
:104550002000000010B500F0BBF8BDE81040FFF7E8
:1045600079BE000070B53D4C04F1F40594F8F200FA
:1045700001280AD1B5F8800038B129462046FBF75A
:104580001AFE002084F8F20070BD344834A1F430E3
:10459000FBF703FE0126002846D0304832A1F43054
:1045A000FBF7FBFD002841D02C4831A1F430FBF78C
:1045B000F4FD00283CD0294831A1F430FBF7EDFD93
:1045C00088B3264831A1F430FBF7E7FD0028DBD0A3
:1045D000224830A1F430FBF7E0FD0028D4D01F487A
:1045E00030A1F430FBF7D9FD30B31C482FA1F430D3
:1045F000FBF7D3FD20B319482EA1F430FBF7B4FD2F
:104600000028C1D0002384F8F2601E4619466A5C77
:10461000E6B11046FFF7B3F8A8B1E0185B1C80F8CC
:10462000C820DBB215E005E024480AE0244808E091
:10463000244806E0244804E0BDE8704000F0D0B80B
:104640002248067070BD222AFCD002E0222A00D146
:104650000126491C1629DADB70BD0000601000201D
:104660004F4B0D0A000000004552524F520D0A00F8
:1046700043616C6C2052656164790D0A0000000092
:10468000534D532052656164790D0A0042555359C8
:104690000D0A00004E4F20434152524945520D0A27
:1046A0000000000052494E470D0A00005244590DC7
:1046B0000A0000002B434D543A000000A3000020E4
:1046C000A4000020A1000020A20000209F000020E4
:1046D000F8B500268DF800600224234D3BE09DF8DC
:1046E0000000A0B3B5F8800080281CD29DF800100F
:1046F0002954B5F88000401C81B2A5F88010A14271
:104700000FD30122002008E0231ACB1A17A7EB5C75
:104710003F5CBB4200D00022401CA042F4DB012AD7
:104720000BD0802901D3A5F880601148007870B1C2
:104730009DF800003E280ED10AE06E5435F8800F37
:10474000401C2880FFF70EFF25F88069EDE702E0A6
:1047500008490120087004488430FFF78DFB8DF86C
:1047600000000028BBD1F8BD541100200D0A000044
:10477000980000209900002070B5FFF74BFD0E4C0B
:1047800001206071E07B022807D300252571657147
:104790002574FFF7E9FBE57370BDFDF755FEFDF7E6
:1047A000DFFD06A0FDF76EFEFDF7DEFDBDE8704003
:1047B00006A0FDF767BE00009800002053494D3A5F
:1047C00020696E6974206572726F7200526574722E
:1047D000792E2E20202020202020202000000000E4
:1047E00001A103A0FFF75EBE4154480D0A0000007E
:1047F00025730000054A1378002B06D000231370A0
:104800008AB201460248FDF749BD704741000020C9
:104810007C0E002010B590B0084B09A20BA1684691
:10482000FEF75CFA6846FFF73DFE0B4CA07C401C8F
:10483000A074FCF7C9FE606210B010BD4C100020DF
:1048400041542B434D47533D000000002573222562
:1048500073220D0A00000000980000200249002089
:104860000870024908707047980000209A000020E4
:1048700003490120087003490020087070470000B8
:104880009A000020980000200000000000000000B6
:1048900001020304060708090000000001020304E6
:1048A0000040404040404040404041414141414043
:1048B00040404040404040404040404040404040F8
:1048C0004005020202020202020202020202020287
:1048D000022020202020202020202002020202028C
:1048E00002029090909090901010101010101010E4
:1048F00010101010101010101010101002020202F0
:104900000202888888888888080808080808080833
:10491000080808080808080808080808020202022F
:1049200040000000A148000848490008000000209D
:10493000C40000000C2D00080C4A0008C400002030
:10494000243D00001C2D0008010F3800000000006D
:104950000000000000000000000000000000000057
:104960000000000000000000000000003031323381
:10497000343536373839414243444546000000005B
:104980000000000000000000010100000000000025
:104990000000000000000000000000000000000017
:1049A0000000000000000000000000000000000106
:1049B00000000000000000000200000000000000F5
:1049C00000000000000000000000000000000000E7
:1049D00001000000100000000000000000A24A04D6
:1049E00000000000000000000000000000000000C7
:1049F00000010000000000000000000000000000B6
:0C4A0000000000000000000000000000AA
:04000005080000ED02
:00000001FF
